:020000040800F2
:10000000D00A002041020008430B00083F0B000803
:10001000410B000825090008651D000800000000CC
:10002000000000000000000000000000350E000885
:10003000BD09000800000000A90B0008ED0E000833
:100040005B0200085B0200085B0200085B0200081C
:100050005B0200085B020008E90900086D0A00085D
:10006000890A0008A50A0008C10A00085B02000806
:100070005B0200085B0200085B0200085B020008EC
:100080005B0200085B0200085B0200085B020008DC
:100090005B0200085B0200085B020008DD0A000842
:1000A0005B0200085B0200085B0200085B020008BC
:1000B0005B0200085B0200085B0200085B020008AC
:1000C0005B0200085B0200085B0200085B0200089C
:1000D0005B020008991B0008B51B0008D51B00082F
:1000E000050A00085B0200085B0200085B020008CA
:1000F0005B0200085B0200085B0200085B0200086C
:100100005B020008710D00085B0200085B0200083A
:100110005D1B00087D1B00085B0200085B020008F5
:100120005B0200085B0200085B0200088D09000802
:100130005B0200085B0200085B0200085B0200082B
:100140005B0200085B0200085B0200085B0200081B
:100150005B0200085B0200085B020008F11B00085C
:100160005B0200085B0200085B0200085B020008FB
:100170005B0200085B0200085B0200085B020008EB
:100180005B0200085B02000800F002F800F048F88B
:100190000AA090E8000C82448344AAF10107DA45E2
:1001A00001D100F03DF8AFF2090EBAE80F0013F0EC
:1001B000010F18BFFB1A43F0010318475422000037
:1001C00074220000103A24BF78C878C1FAD85207C8
:1001D00024BF30C830C144BF04680C6070470000C1
:1001E0000023002400250026103A28BF78C1FBD840
:1001F000520728BF30C148BF0B607047642900F028
:10020000D180782900F00A81002070471FB502F0E4
:10021000DDF89DE8030000F033FA1FBD10B510BDF6
:1002200000F002FB1146FFF7F1FF01F0B7FD00F00F
:1002300020FB03B4FFF7F2FF03BC00F04DFB00000E
:100240000948804709480047FEE7FEE7FEE7FEE76A
:10025000FEE7FEE7FEE7FEE7FEE7FEE704480549A6
:10026000054A064B70470000F50E0008890100089A
:10027000D0020020D00A0020D0060020D0060020A6
:1002800070B5064600F0E0F9056806F10B0020F0B5
:100290000704B4429CBF002070BD2B466A68BAB107
:1002A0001068A04210D304F1080188423CBF506896
:1002B000586007D35168101941601168091B01602B
:1002C00058601460101D70BD13465268002AE7D1B3
:1002D0002146284600F0C0F90028DED170BD70B577
:1002E0000446051F00F0B0F90068002C14BF4468F4
:1002F00070BD002C18BFAC423CBF20466468F8D3E8
:1003000001680A18AA4218BF456003D12A68054649
:100310001144016028684119A1421CBF6C6070BD86
:100320006168696021680844286070BD0FB41CB51D
:10033000074B06AA7B4469460090059800F035FA01
:100340000020694600F044FA1CBC5DF814FB000074
:100350009904000070B5044685690068C10601D59E
:10036000302600E02026C00707D070BDD4E9012167
:1003700030469047206A401C20626D1EF6D570BD45
:1003800070B5044685690078C00707D170BDD4E90F
:10039000012120209047206A401C20626D1EF6D566
:1003A00070BD00002DE9F041064600241068752953
:1003B000314616A510D0AFF30080002802DA404283
:1003C00013A507E031688A0701D512A502E04907A5
:1003D00004D511A5012401E0AFF3008000210A2219
:1003E00006F1240709E0B0FBF2FCB0FBF2F302FBDC
:1003F0001C00303078541846491C0028F3D123469D
:100400002A463046BDE8F04100F070B90000000017
:100410002D0000002B0000002000000070B50446F5
:100420000D4621461068AFF300802188090502D5EA
:100430000F4A7A4402E00E4A7A440E32002104F157
:10044000240305E000F00F060009965D5E54491C88
:100450000028F7D120780023000704D5702D02D0A2
:1004600009B1022311322046BDE8704000F03EB9C8
:10047000A01F00002DE9F05F894604464FF0000AF6
:10048000DFF824B1FB44C0F820A02046E16888478B
:1004900000287DD0252806D0D4E901219047206A84
:1004A000401C2062F1E700255F462046E16888474E
:1004B0002028064607DB312E05D2B81910F8200C8B
:1004C00008B10543F1E7A80701D525F00405C4F8F4
:1004D0001CA00027C4F818A02A2E09D0304601F02D
:1004E00055FC38B304EB8708303EC8F8186019E0B3
:1004F00059F8041B204604EB87029161E1688847A4
:10050000012F064618D1E069002820DA25F02005E1
:100510001DE0D8F8180000EB800006EB40003038F2
:10052000C8F818002046E1688847064601F02EFC0E
:100530000028EED1012F0AD02E2E08D12046E168E6
:1005400088477F1C0646022F45F02005C4DBA069C2
:10055000002803DA404245F00105A061E80701D018
:1005600025F01005A6B1A6F14100192802D82036C1
:1005700045F400654A463146204625604D46FFF762
:100580003DFE60B1012807D0ED1D25F0070000E019
:1005900007E000F1080978E705F1040975E730463E
:1005A0007AE7206ABDE8F09F761F000040EA010369
:1005B00070B59B072ED14FF00136042A2AD308C804
:1005C00010C99D1B9D43121F15EAC61517D0D8B23E
:1005D000E1B2401A50EA056110D198B2A1B2401AB6
:1005E00050EA05410AD123F07F4024F07F41401AB0
:1005F00050EA052102D1180EA0EB146070BDA34291
:10060000DBD018BA21BA884201D9012070BD4FF061
:10061000FF3070BD0AB9002070BD10F8013B11F821
:10062000014B63B1A3420AD1521E08D010F8013B1E
:1006300011F8014B1BB1A34201D1521EEDD1181B81
:1006400070BD7047704770470048704778020020BF
:10065000704770477047704738B504460A46002017
:100660006946AFF30080002808BF38BD02460099F4
:10067000204600F0B7F8012038BD012000F0CCB8CA
:10068000F8B5AFF30080054600200C46102000BFEF
:100690000646A819A0420DD9324669460020AFF39C
:1006A0000080070008BF00F0B7F80098A04218BF0C
:1006B0000546C419FFF7C8FF05600746F01D20F086
:1006C00007004619284600F00AF8B44208BFF8BDF2
:1006D000A21B31463868BDE8F84000F083B800211D
:1006E0000160C0E901107047102070472DE9F04704
:1006F0000D4699469246044600F124080168880692
:1007000004D5E06921F01001216000E00120A84239
:1007100001DD471B00E00027A1697A1902EB0900FF
:10072000081AA0612078C00602D42046FFF712FE06
:10073000002608E0D4E901211AF806009047206A53
:10074000401C761C20624E45F4DB2078C0060AD59A
:100750002046FFF7FFFD06E0D4E901213020904755
:10076000206A401C2062381EA7F10107F4DC07E074
:10077000D4E9012118F805009047206A401C206246
:10078000281EA5F10105F3DC2046FFF7F9FD2078CE
:10079000000602D50220BDE8F0870120FBE700003B
:1007A00001694A1C02610878704700B58FB0CDE935
:1007B00001310021059105497944CDE90310114625
:1007C0006846FFF757FE0FB000BD0000E5FFFFFFD2
:1007D0000A6802F8010B0A60704700000048704781
:1007E00070020020034640688C46002818BF8842EB
:1007F0003CBF03464068F8D318681844884207D0C5
:100800000CF1030020F00700001D411A521A0146A6
:10081000081D0A60FFF763BD10B500F035F8BDE8AC
:10082000104000F02CB870477546FFF7D7FFAE4672
:1008300005006946534620F00700854618B020B5EC
:10084000FFF70CFDBDE820404FF000064FF0000719
:100850004FF000084FF0000B21F00701AC46ACE868
:10086000C009ACE8C009ACE8C009ACE8C0098D46D5
:1008700070470446AFF300802046FFF7DAFC0028FB
:1008800001D000F029B8704710B5012805D000212B
:1008900003A000F027F8012010BD09A1F8E700002F
:1008A00053494752544D454D3A204F7574206F6659
:1008B0002068656170206D656D6F727900000000C1
:1008C0003A2048656170206D656D6F727920636FA5
:1008D000727275707465640001491820ABBEFEE742
:1008E0002600020070B505460C460A2000E06D1C8B
:1008F00000F011F835B128780028F8D102E0641C26
:1009000000F009F814B120780028F8D1BDE8704053
:100910000A20AFF3008008B569468DF80000032077
:10092000ABBE08BDFEE700000F4801210171C1798F
:10093000027A11438279114302D0C169491CC16115
:10094000C17A4279114302D0016A491C0162417A9D
:1009500011B1416A491C4162817A002902D0816A41
:10096000491C8162704700008800002010B5054CCA
:10097000204600F0DBFE2046BDE81040024901F0B1
:100980004CB80000001401409800002000F0F2B9BB
:10099000074A904201D2074801E005481038064A4C
:1009A0008B0001EA020101D5C16070478160704788
:1009B00010640240006002407D0F7D0F7047000010
:1009C000024909684843401EFDD270477C00002060
:1009D000044908B50A6800920A68009BD21A82424C
:1009E000FAD308BD74000020054810B50168C90796
:1009F00004D0012101600846AFF3008010BD000063
:100A0000143C014010B5184C2068400503D5201552
:100A10002060AFF300802068000504D54FF400602B
:100A20002060AFF300802068C00404D54FF48050EC
:100A30002060AFF300802068800404D54FF400509C
:100A40002060AFF300802068400404D54FF480405C
:100A50002060AFF300802068000404D54FF400400C
:100A60002060AFF3008010BD143C0140054810B574
:100A70000168890704D5022101600846AFF30080B0
:100A800010BD0000143C0140054810B5016849073D
:100A900004D5042101600846AFF3008010BD0000BA
:100AA000143C0140054810B50168090704D5082128
:100AB00001600846AFF3008010BD0000143C014007
:100AC000054810B50168C90604D510210160084623
:100AD000AFF3008010BD0000143C014010B5134C72
:100AE0002068800603D520202060AFF300802068B6
:100AF000400603D540202060AFF300802068000648
:100B000003D580202060AFF300802068C00504D5A5
:100B10004FF480702060AFF300802068800504D51A
:100B20004FF400702060AFF3008010BD143C014012
:100B30000246002012690A4200D001207047FEE7F9
:100B4000FEE7704730B50F23C27801780125FAB16E
:100B5000144A126801F1E02102F4E062C2F5E06299
:100B6000C2F30722C2F10404D3404278A240847841
:100B70001C401443220181F80024007800F01F017A
:100B80008D404009800000F1E020C0F8005130BDE8
:100B900001F01F0085404809800000F1E020C0F806
:100BA000805130BD0CED00E07047000070B50322AD
:100BB00030A13148FFF7FAFC0025304C012618B966
:100BC000E6716672E561656203222DA12A48FFF78E
:100BD000EDFC18B9E671A672E561A562032229A1B0
:100BE0002548FFF7E3FC08B966726562032221A17C
:100BF0002148FFF7DBFC08B9A672A562032222A1F7
:100C00001D48FFF7D3FC08B9E6722562E07908B108
:100C100001F0C6FBE07A08B101F0CCFB207A08B104
:100C200001F0BEFB607A194A18B111151180616A92
:100C30006163A17A11B14FF400631380E279A37963
:100C40001A43237A1A4304D0E26902EBD27252109B
:100C5000E262E27A63791A4304D0226A02EBD2722A
:100C60005210226308B1606A6063002901D0A06A53
:100C7000A06370BD523131002A020020880000209C
:100C8000523231005231320052333100180C0240DE
:100C9000044A0029116801D0014300E0814311603A
:100CA0007047000020380240044A0029116801D032
:100CB000014300E081431160704700002438024086
:100CC00070B5204B1968204C11F00C0104D066104F
:100CD000042903D0082903D004601BE0066019E052
:100CE000184A121F1168C1F38055116801F03F01C5
:100CF00015B1B6FBF1F101E0B4FBF1F11468126833
:100D0000C4F388146143C2F30142521C5200B1FB88
:100D1000F2F1016019680F2202EA11110B4A545CCA
:100D20000168E14041601C68072505EA9424145DD0
:100D300021FA04F484601B6805EA5333D25CD14085
:100D4000C16070BD083802400024F400000000209B
:100D50000149086070470000382C0140034A0146F1
:100D6000002012680A4200D001207047342C014054
:100D700000F014B80748006810F0C05F08D00649BA
:100D80000120486103484FF0C2515830FFF700BEC0
:100D90007047000000640240F000002070B54FF47E
:100DA00080752846FFF7DAFF204C38B1002020700C
:100DB0002846FFF7CDFF012020612EE00220FFF73B
:100DC000CDFF20B10220FFF7C3FF022024E008205E
:100DD000FFF7C4FF20B10820FFF7BAFF04201BE093
:100DE0002020FFF7BBFF20B12020FFF7B1FF062036
:100DF00012E01020FFF7B2FF20B11020FFF7A8FF8C
:100E0000052009E04FF400752846FFF7A7FF20B141
:100E10002846FFF79DFF07202070054801684CF227
:100E20003A3291430160207870BD0000F00000204C
:100E30003C2C0140704700000CB50022274900926D
:100E40000192086840F4803008604FF4A0430868BD
:100E500000F4003001900098401C0090019810B9F7
:100E600000989842F3D10868800334D5012001909E
:100E70001A484030026842F0805202601848026806
:100E800042F440420260154808300268026002687D
:100E900042F400420260026842F4A0520260031F62
:100EA000104A1A600A6842F080720A600A68920169
:100EB000FCD50D4940F205720A60016821F003017A
:100EC0000160016841F0020101600168C1F3810124
:100ED0000229FAD10CBD01920CBD0000003802407D
:100EE0000070004008544007003C024010B500F07C
:100EF00005FE10BD124810B5016841F47001016093
:100F00001048016841F0010101600E4A00210832D9
:100F1000116002680C4B1A400260031D0B4A1A60F4
:100F2000026822F48022026006480C300160FFF75C
:100F300083FF03494FF000608039086010BD000056
:100F400088ED00E000380240FFFFF6FE103000247C
:100F50000E4801684FF47A70B1FBF0F0401EB0F11A
:100F6000807F12D24FF0E0225061094BF02083F8CD
:100F7000140D00209061072010610648B1FBF0F1CC
:100F80000548C160012101707047FEE7DC000020C8
:100F90000FE000E0C0C62D00700000202DE9F047F2
:100FA0000F4C0546DDF8209020781E4617468846EF
:100FB000052802D30020BDE8F0871820FFF760F96C
:100FC0000028F8D00560C0E901850773C0E904690D
:100FD000217804EB810148602178491C2170EAE7FF
:100FE000E00100202DE9FE4F164683460C004FF02D
:100FF000010A02D0601E014212D00025574607FAAE
:1010000005F0204205D081B232465846FFF7EAFF8C
:10101000B8BB6D1CEDB2102DF1D30020BDE8FE8FE2
:10102000DFF86081D8F80000204234D108F10409CB
:10103000D9F8000020422ED1B4F5807F37D012DCE1
:10104000102C32D008DC012C27D0022C27D0042C05
:1010500027D0082C1FD126E0202C28D0402C26D0C9
:10106000802C18D123E0B4F5805F22D00ADCB4F5DF
:10107000007F1CD0B4F5806F1BD0B4F5006F0AD18F
:1010800017E008E0B4F5005F13D0B4F5804F10D03E
:10109000B4F5004F0DD00120C0E706250AE0072572
:1010A00008E0082506E0092504E00A2502E01725E6
:1010B00000E02825012E51D0F6B300200021CDE913
:1010C00000010B460A462146584600F0C3F8204668
:1010D00000F05EF8C7B2584600F064F8C2B22A4881
:1010E000016841F480410160284827F00301084469
:1010F000D0F80838B907090F4FF00F0C0CFA01FCB3
:1011000023EA0C03C0F80838D0F808388A401343A3
:10111000C0F80838D8F80010A143C8F80010D9F872
:101120000020A243C9F80020D8F800102143C8F8D5
:10113000001014480C3000E012E00168A143016087
:10114000011F0A68A2430A60012E0BD016B1026883
:101150002243026008682043086006E00120ADE7F2
:101160000220ABE70168214301608DF808500A2096
:101170008DF809008DF80A708DF80BA002A8FFF712
:10118000E1FC4AE7003C01404438024000300140A5
:10119000002102E0491C89B240080128FAD808461B
:1011A0007047000002490844C0F38F2070470000D8
:1011B0000000FEBF00B5FFF7F5FF012181400248A6
:1011C00002681143016000BD303802402DE9F04F44
:1011D0009A46DDE909B889460346FFF7E3FFC5B241
:1011E00000204FF0030E0121814011EA090F28D0A1
:1011F000174E36F815400C4326F81540DF684400BA
:101200000EFA04F6B7430BFA04FC47EA0C07DF605A
:101210001F6802FA04FCB74347EA0C071F60012A63
:1012200001D0022A0DD15F6889B28F430AFA00F11A
:1012300089B20F435F60996808FA04F4B14321430F
:101240009960401CC0B21028CDD3BDE8F08F0000DB
:10125000080100202DE9FC411646DDE908750C0067
:10126000804608D0FFF7A6FFCDE90075324621463B
:101270004046FFF7ABFFBDE8FC812DE9FC4F9946E6
:10128000DDE90BB692460C00054622D0FFF792FF2F
:10129000002201274FF00F0C07FA02F020420DD078
:1012A000D00805EB8000016A5307DB0E0CFA03F847
:1012B00021EA080106FA03F319430162521C102ABD
:1012C000EAD3CDE9009B5346022221462846FFF788
:1012D0007DFFBDE8FC8F10B5012000F007F8BDE8E8
:1012E000104040F6B830FFF76BBB000010B507495F
:1012F00004464FF480704883200900F009F804F098
:101300000F00BDE8104000F003B8000000100240DC
:1013100070B5144C02074FF0800101D5218300E025
:10132000618342074FF0400101D5218300E06183D2
:1013300082074FF0200101D5218300E06183C107BE
:101340004FF0100001D0208300E060834FF48065EF
:1013500025831420FFF734FB6583BDE8704014201B
:10136000FFF72EBB0010024070B50D4600F00700DD
:10137000402141EAC000FFF7B9FF0024285D00F0DA
:101380001DF8641CE4B2082CF8D370BD08B509A29E
:1013900012680092084AD3788B4200D8002150711D
:1013A00091711DF801100844C0B240F08000FFF7B1
:1013B0009DFF08BD004014548000002010B507496F
:1013C00004464FF4807008832009FFF7A1FF04F062
:1013D0000F00BDE81040FFF79BBF00000010024067
:1013E0000449087840F00400087040F00800FFF756
:1013F0007DBF00008000002070B50D460646FFF757
:10140000A7FD00F041F84AF6C870FFF7D9FA1D4C65
:101410000020012DE57026716071A071607001D906
:10142000082060700320FFF773FF41F294152846EF
:10143000FFF7C6FA0320FFF76BFF2846FFF7C0FA55
:101440000320FFF765FF2846FFF7BAFA0220FFF7EF
:101450005FFF6420FFF7B4FA607840F02000FFF7E8
:1014600045FF04202070FFF7BBFFFFF734FF022089
:10147000A0700620FFF73AFF2846BDE87040FFF74E
:101480009FBA0000800000202DE9FC4100240122C9
:101490001E4D160200942346314628460194FFF75C
:1014A000D9FE012297020094002339462846019470
:1014B000FFF7D0FE0094002301221021284601945A
:1014C000FFF7C8FE00940023012220212846019442
:1014D000FFF7C0FE0094002301224021284601941A
:1014E000FFF7B8FE009400230122802128460194D2
:1014F000FFF7B0FE6E836F8310206883202068831F
:101500004020688380206883BDE8FC810010024091
:1015100070B51446FFF73AFF134D16E06879297944
:10152000884207D300206871A979491CC9B2A97102
:10153000FFF72CFF20780A280BD00D280FD0FFF7DB
:101540003DFF6879401C6871641C20780028E5D153
:1015500070BDA879401CC1B2A971687901E0A97970
:101560000020FFF713FFEFE7800000201CB50822E2
:10157000032140B101280DD0032803D108210A48D6
:1015800000F04AFA1CBDCDE900120123002203211C
:10159000064806E0CDE90012012300224FF4406125
:1015A0000348FFF76AFE1CBD004C004000000240EB
:1015B000000802407CB530B1032803D108210B4854
:1015C00000F02AFA7CBD0825032401230022190318
:1015D0000748CDE90045FFF750FE01230022042112
:1015E0000448CDE90045FFF748FE7CBD00500040AF
:1015F00000080240000C02401CB50722032140B144
:1016000001280ED0032803D107210A4800F004FA6C
:101610001CBDCDE90012012300224FF4C061064831
:1016200005E0CDE9001201230022C0210348FFF7A5
:1016300024FE1CBD001001400000024000040240D6
:101640001CB50722032140B101280DD0032803D186
:1016500007210A4800F0E0F91CBDCDE90012012382
:1016600000220C21064805E0CDE9001201230022EA
:1016700060210448FFF701FE1CBD0000004400404B
:1016800000000240000C02401CB50722032399020F
:1016900050B101280ED0022812D0032803D107210F
:1016A0000C4800F0B9F91CBDCDE90032012300223D
:1016B00009480CE0CDE9003201230022074806E08A
:1016C000CDE90032012300224FF440710448FFF7B6
:1016D000D4FD1CBD00480040000402400008024048
:1016E000000C02401CB50822032140B101280DD096
:1016F000032803D108210A4800F08EF91CBDCDE96A
:10170000001201230022C021064806E0CDE90012A4
:10171000012300224FF484410348FFF7AEFD1CBDB6
:1017200000140140000802400018024000B500F01B
:1017300031F8C18829B901894089814201D101204C
:1017400000BD002000BD00000C4A0146904200D1BF
:1017500000200B4A914200D101200A4A914200D157
:101760000220094A914200D10420084A914200D146
:101770000520074A914200D1062070470010014021
:101780000044004000480040004C00400050004031
:10179000001401400F4A0146904200D10E480F4A02
:1017A000914201D10C4810300D4A914201D10A48B2
:1017B00020300C4A914201D1074830300A4A914208
:1017C00001D105484030094A914201D102485030C8
:1017D000704700000010014010000020004400404D
:1017E00000480040004C0040005000400014014000
:1017F0002DE9FF4F87B09A46DDE914B91346044638
:10180000DDF85C80FFF7C6FF05464448444F01936E
:10181000844209D1386840F0100038600898FFF71A
:10182000EBFE25208DF800003D4E3E48361F8442D9
:1018300009D1306840F4003030600898FFF700FFAD
:1018400026208DF800003848844209D1306840F4E1
:10185000802030600898FFF717FF27208DF80000E0
:101860003248844209D1306840F400203060089842
:10187000FFF77CFE34208DF800002D48844209D10A
:10188000306840F4801030600898FFF793FE3520F0
:101890008DF800002748844209D1386840F02000C4
:1018A00038600898FFF71EFF47208DF8000020469B
:1018B00000F0ACF901268DF8036006208DF80100D8
:1018C0002046FFF741FF8DF802006846FFF73AF91E
:1018D0001698ADF80A00ADF80EB0ADF810A0ADF84E
:1018E0000C90ADF808800020287340F6FF7005903A
:1018F000411E059101D30846FAE701A9204600F0F0
:10190000DBF9A08940F02000A0812E73A08940F46B
:101910000050A0810BB0BDE8F08F00000010014026
:10192000443802400044004000480040004C004061
:101930000050004000140140C388828893420DD2B9
:101940000389934201D10022028103890268D154A4
:101950000189491C0181C188491CC1807047000070
:101960002DE9FF410446264800250C2617468846E7
:10197000844206D1CDE90065029500230395FFF767
:1019800037FF2048844208D1CDE900650295002345
:101990003A4641460395FFF72BFF1B48844208D186
:1019A000CDE90065029500233A4641460395FFF7CD
:1019B0001FFF1648844208D1CDE900650295002337
:1019C0003A4641460395FFF713FF1148844208D178
:1019D000CDE90065029500233A4641460395FFF79D
:1019E00007FF0C48844208D1CDE900650295002329
:1019F0003A4641460395FFF7FBFEBDE8FF81000034
:101A0000001001400044004000480040004C0040ED
:101A10000050004000140140704710B50C460346CA
:101A2000FFF7B8FE007B00280BD007E019880906F5
:101A3000FCD59880641C18880006FCD52078002806
:101A4000F4D110BD70B52B4B002211461C68A400C8
:101A500004D51C68012244F080741C60264B45F2BA
:101A600055541C600B2801D3072400E003245C605C
:101A700000B3012820D0022820D0032820D0042839
:101A800020D0052820D0062820D0072820D040F2DA
:101A9000FF3408281FD040F2FF7509281DD040F6FA
:101AA000FF760A281BD00B2815D00C2815D00D283E
:101AB00015D015E0052113E00A2111E00F210FE0F8
:101AC0001F210DE03D210BE07B2109E0FF2107E014
:101AD00040F2FF1104E0214602E0294600E03146D1
:101AE00099604AF6AA2018604CF6CC40186010465F
:101AF00070BD0000743802400030004070B51548D9
:101B00004168491C4160816811B18168491E81604A
:101B1000AFF300800024104E18E006EB84056868DF
:101B200090B1017B81B1826872B1521E8260696896
:101B30000AD14869096988476868016881606868EE
:101B4000416809B900210173641CE4B23078A042F5
:101B5000E3D870BD70000020E00100200548008837
:101B6000800606D50348001D0088C1B20248FFF771
:101B7000E3BE7047004C004040000020044801884C
:101B8000890604D58088C1B20248FFF7D5BE7047E8
:101B9000005000405000002004480188890604D508
:101BA0008088C1B20248FFF7C7BE704700100140ED
:101BB0001000002005480088800606D50348001D57
:101BC0000088C1B20248FFF7B7BE7047004400402A
:101BD00020000020054810B50088800605D5034880
:101BE000001D0088C0B2AFF3008010BD0048004067
:101BF000054810B50088800605D50348001D0088FB
:101C0000C0B2AFF3008010BD00140140224910B5EE
:101C1000884206D101211020FFF746F8002110204C
:101C200020E01E49884202D101214C0429E01C49D0
:101C3000884202D101218C0423E01A49884202D152
:101C40000121CC041DE01849884202D101210C0574
:101C500017E01649884209D101212020FFF724F816
:101C600000212020BDE81040FFF71EB8104988422F
:101C700002D101218C0704E00E4988420AD10121DA
:101C800044052046FFF704F82046BDE81040002137
:101C9000FEF7FEBF10BD00000010014000440040F0
:101CA00000480040004C004000500040001401403B
:101CB00000780040007C00407FB50446008A0D4655
:101CC000C98820F4405001432182A08941F20C616F
:101CD0008843A9882A8911436A8902431143A18153
:101CE000A08A20F44071A8890843A0826846FEF7C4
:101CF000E7FF1A48844202D01948844201D1039870
:101D000000E00298A189090400EBC00101EB00107A
:101D1000296801D5490000E08900B0FBF1F0642298
:101D2000B0FBF2F109010B096FF018056B4300EBF2
:101D30008300A3891D044FF0320306D503EBC000D6
:101D4000B0FBF2F000F0070005E003EB0010B0FB81
:101D5000F2F000F00F00084320817FBD0010014029
:101D600000140140FEE7000070B505460024064E51
:101D700006E00A20FEF72CFEB078012802D0641C91
:101D8000AC42F6D970BD00008800002030380A2827
:101D900001D2012070470020704700009EB0FFF77D
:101DA000A9F8FFF7D5F80B20FFF74CFEF548002601
:101DB0000660F54D0096334632464FF40041284602
:101DC0000196FFF747FA002300961A46202128467D
:101DD0000196FFF73FFA002300961A464021284655
:101DE0000196FFF737FA002300961A46802128460D
:101DF0000196FFF72FFAE54F002201213846FFF741
:101E0000F1F8DFF88CB318B9E2A15846FFF705FEE8
:101E1000002208213846FFF7E5F818B9E4A1584632
:101E2000FFF7FBFD002210213846FFF7DBF818B959
:101E3000E5A15846FFF7F1FD4FF4807901224946AC
:101E40003846FFF7CFF818B9E5A15846FFF7E5FD8A
:101E5000012240213846FFF7C5F818B9E6A15846D7
:101E6000FFF7DBFD0124002300941A462146A84613
:101E700028460194FFF7EEF9002300941A46022148
:101E800040460194FFF7E6F9002300941A4610211A
:101E900040460194FFF7DEF9DD4D002300941A4619
:101EA000202128460194FFF7D5F9002300941A4613
:101EB000402128460194FFF7CDF9002300941A46EB
:101EC000802128460194FFF7C5F9002300941A46A3
:101ED000494628460194FFF7BDF9002300941A46AD
:101EE000210338460194FFF7B5F90325CDE90065D4
:101EF000012200231146C748FFF7ACF9CDE9006580
:101F0000002301220421C348FFF7A4F9CDE90065AD
:101F10004FF4806A0023012251464046FFF79AF9A8
:101F2000CDE900654FF4006900230122494640468F
:101F3000FFF790F94FF4E1320021B748FFF710FDA9
:101F40004FF41658424602219148FFF709FD4246D8
:101F50000021B248FFF704FD00230122494638461C
:101F6000CDE90045FFF776F9A7F818900122AC4BB0
:101F700011464FF4FA700096FFF710F8A94C0122B1
:101F8000A94BE063114664200096FFF707F8206430
:101F9000CDE900650122A54F5502002329463846A8
:101FA000FFF758F97D8300F0B3F9207BA06104218D
:101FB0001020FFF721FA04F14B010020FFF7D4F9BC
:101FC00000219BA20846FFF7A3FAA1A2022100204C
:101FD000FFF79EFA4FF47A752846FEF7F9FCFFF7F3
:101FE0007AF99DA105A8A269FEF7A0F9002105AA2A
:101FF0000846FFF78DFA2846FEF7EAFCFFF76BF973
:10200000002199A20846FFF783FA9C494AF6AA20C4
:1020100008606670834DDFF87081994C814F4435BC
:1020200008F11A0883463879A0B13E71786918B969
:1020300094A17A48FFF7F1FC7869012803D194A1B3
:102040007648FFF7EAFC7869022803D193A1734828
:10205000FFF7E3FCB87908B100F0A2F9787908B18C
:1020600000F0A8F93878012804D08FA202210020BE
:10207000FFF74EFA787801284FD1387022792A700C
:1020800063796B70A179A970E079E87094F808C061
:1020900085F804C094F809C085F805C094F80AC012
:1020A00085F806C094F801C0BCF1080F06D1CDE94F
:1020B0000010734880A16430FEF738F960780B286F
:1020C00010D1E8780DF1040CAB796A7929798CE8A4
:1020D0000F00A87800906A486B782A787BA164305A
:1020E000FEF724F982A202210020FFF711FA6449C9
:1020F00027486431FFF791FCC820FFF735FE7E705A
:10210000B87840B17EA202210020FFF701FABE702C
:10211000FEF74CFD00E03E707E70F86900EBD07079
:102120004010F862B969884207D300F021F9FE71C6
:10213000BE71FE61FE627E703E70386A00EBD07048
:1021400040103863B969884206D300F01DF9FE7269
:102150007E713E623E633E70786A7863012804DBDC
:10216000A8F800A07E727E627E63B86AB863012818
:1021700004DBA8F80090BE72BE63BE623F49C1F89E
:1021800000B050E774000020000C02400000024044
:10219000004800406B686F692074616F206E676152
:1021A000742044464D465F424954340A0000000002
:1021B0006B686F692074616F206E6761742057319E
:1021C0005F44300A000000006B686F692074616F23
:1021D000206E6761742057315F44310A00000000AF
:1021E0006B686F692074616F206E6761742057326D
:1021F0005F44310A000000006B686F692074616FF2
:10220000206E6761742057325F44300A000000007E
:102210000004024000080240001401400010014088
:1022200029090008880000206D09000800100240FC
:1022300053544D3332463430375645540A0D4372A9
:102240006561727462795226442D5449530000002E
:1022500057656C636F6D650054696D6572206F75AD
:1022600074202564000000002D2D2D2D5449533875
:102270002050524F2D2D2D2D000000000030004029
:10228000F80100202F4C45443030303E0D0A00004C
:102290002F4C45443030313E0D0A00002F4C454450
:1022A0003030323E0D0A00005761697420666F724B
:1022B00020436172640000002530327820253032DE
:1022C0007820253032782025303278002530327859
:1022D0002025303278202530327820253032782081
:1022E00025303278202530327820253032780000B1
:1022F00057616974696E672050432E2E2E000000CE
:10230000446F6F72206F70656E65642E2E00000042
:1023100010B5134C01212046FEF70AFC022120468D
:10232000FEF706FC10212046FEF702FC0D4C202192
:102330002046FEF7FDFB40212046FEF7F9FB8021F9
:102340002046FEF7F5FBA1152046FEF7F1FBA11490
:102350000548FEF7EDFB05490620087310BD000097
:10236000000C0240000402400000024088000020EF
:10237000034901200880034900204861704700009C
:102380001A080240880000200349042008800349FD
:1023900000204861704700001A08024088000020B1
:1023A000024901200880024948617047180802402C
:1023B0008800002003490420088003490220486166
:1023C0007047000018080240880000204FF040705D
:1023D000E1EE100A70473031323334353637383950
:1023E0004142434445464030580030313233343561
:1023F00036373839616263646566403078000400BE
:1024000000080000000000000002000100001000B1
:10241000302400080000002008010000C40100086A
:102420003825000808010020C8090000E001000864
:10243000000000000102030401020304060708096A
:102440001E0100202000000000000000000A000023
:102450003E0100202000000000000000000A0000F3
:102460005E0100202000000000000000000A0000C3
:102470007E0100202000000000000000000A000093
:102480009E0100202000000000000000000A000063
:10249000BE0100202000000000000000000A000033
:1024A000000000000000000000000000000000002C
:1024B000000000000000000000000000000000001C
:1024C0000000000000000000BA0201B90000000096
:1024D00000000000000000000000000000000000FC
:1024E00000000000000000000000000000000000EC
:1024F00000000000000000000000000000000000DC
:102500000000001F1111111111111F00007A030AA0
:102510000000000000000000010203040607080993
:1025200000010000000000000000000000000000AA
:082530000000000000000000A3
:040000050800018965
:00000001FF
