:020000040800F2
:10000000800C002081020008952E0008972E000821
:10001000992E00089B2E00089D2E0008000000006D
:100020000000000000000000000000009F2E0008FB
:10003000A12E000800000000A32E0008A72E000833
:100040009B0200089B0200089B0200089B0200081C
:100050009B0200089B0200085F2000087720000830
:100060008F200008A7200008BF2000089B0200087E
:100070009B0200089B0200089B0200089B020008EC
:100080009B0200089B0200089B0200089B020008DC
:100090009B0200089B0200089B020008D720000872
:1000A0009B0200089B0200089B0200089B020008BC
:1000B0009B0200089B0200089B0200089B020008AC
:1000C0009B0200089B0200089B0200089B0200089C
:1000D0009B0200083F1C0008511C0008691C000816
:1000E000292100089B0200089B0200089B020008CF
:1000F0009B0200089B0200089B0200089B0200086C
:100100009B020008576D00089B0200089B02000834
:10011000811C0008991C00089B0200089B02000833
:100120009B0200089B0200089B020008776D0008F4
:100130009B0200089B0200089B0200089B0200082B
:100140009B0200089B0200089B0200089B0200081B
:100150009B0200089B0200089B020008AD1C0008DF
:100160009B0200089B0200089B0200089B020008FB
:100170009B0200089B0200089B0200089B020008EB
:100180009B0200089B02000800F002F800F068F8EB
:100190000AA090E8000C82448344AAF10107DA45E2
:1001A00001D100F05DF8AFF2090EBAE80F0013F0CC
:1001B000010F18BFFB1A43F00103184784850000A4
:1001C000A48500000A444FF0000C10F8013B13F026
:1001D000070408BF10F8014B1D1108BF10F8015BA0
:1001E000641E05D010F8016B641E01F8016BF9D193
:1001F00013F0080F1EBF10F8014BAD1C0C1B09D1EA
:100200006D1E58BF01F801CBFAD505E014F8016B5B
:1002100001F8016B6D1EF9D59142D6D370470000ED
:100220000023002400250026103A28BF78C1FBD8FF
:10023000520728BF30C148BF0B607047642907F0E0
:10024000C582782907F0FE82002070471FB507F0AD
:1002500061FF9DE8030007F093FC1FBD10B510BDC2
:1002600007F094FD1146FFF7F1FF02F069FA07F07D
:10027000B2FD03B4FFF7F2FF03BC07F0DFFD00009F
:100280000948804709480047FEE7FEE7FEE7FEE72A
:10029000FEE7FEE7FEE7FEE7FEE7FEE70448054966
:1002A000054A064B70470000532F000889010008DB
:1002B00080040020800C002080080020800800209E
:1002C0002849084328490860704730B50F23C27891
:1002D00001780125FAB1244A126801F1E02102F403
:1002E000E062C2F5E062C2F30722C2F10404D34027
:1002F0004278A24084781C401443220181F80024F3
:10030000007800F01F018D404009800000F1E020DE
:10031000C0F8005130BD01F01F0085404809800041
:1003200000F1E020C0F8805130BD104A1140014377
:100330000D48001F016070470B4A121D002911680B
:1003400001D0014300E08143116070474FF0E0218C
:100350000428086903D020F004000861704740F0C9
:100360000400FAE70000FA050CED00E080FFFF1F33
:10037000F848016841F001010160F64A00210832A5
:1003800011600268F44B1A400260031DF34A1A60C0
:10039000F04BF34A84331A60F04A103A1B1D1A607E
:1003A000026822F480220260EA480C300160181DC5
:1003B00001607047E7490022891C0A700870704785
:1003C00002460020510901290CD002290CD0E14934
:1003D0007431096802F01F02012393400B4200D0E0
:1003E00001207047DB49F4E7DA497031F1E718B5CD
:1003F00000204FF4A04400903120FFF7E1FF009966
:10040000491C0091A14201D00028F5D03120FFF70E
:10041000D7FF002800D0012018BDCE4A116821F076
:10042000F80141EAC00010607047CE49086070478B
:10043000C849002270310A700A70012802D00428CD
:1004400001D1052008707047C7490860704741EA2C
:1004500082115A0810B5C54B029C03EB02421143AE
:10046000014341EA0460BB49091D086010BDBD4954
:1004700008667047800140EA0170B649843108601F
:100480007047B84988667047800140EA0160B14909
:1004900040EA0270883108607047B24908677047C7
:1004A000B049C8647047AB4B08331A68084322F060
:1004B000EC62104318607047A64B08331A68084373
:1004C00022F07842104318607047A24A083211683F
:1004D00021F003010143116070479E480830006815
:1004E00000F00C0070479B4A0832116821F0F001BF
:1004F000014311607047974A0832116821F4E051B6
:10050000014311607047934A0832116821F4604139
:1005100041EAC0001060704770B58E4B083319680F
:10052000934C11F00C0104D06610042903D0082963
:1005300003D004601BE0066019E0864A121D1168B2
:10054000C1F38055116801F03F0115B1B6FBF1F11F
:1005500001E0B4FBF1F114681268C4F3881461433C
:10056000C2F30142521C5200B1FBF2F10160196862
:100570000F2202EA11117F4A545C0168E140416098
:100580001C68072505EA9424145D21FA04F48460AC
:100590001B6805EA5333D25CD140C16070BDC0F323
:1005A0000121032908D16B4B08331968724A21F4E1
:1005B000F81102400A431A60664970310A68C0F3B4
:1005C0000B0002430A60704767494439086070476E
:1005D00065494039086070476249C1F85C0170475D
:1005E0005C4A8C32116821F440110143116070475C
:1005F000584A8C32116821F4400101431160704760
:10060000544A8C321168401E21F01F0101431160D1
:100610007047504A8C3211686FF0FF0321F4F85193
:1006200003EB00200843106070474A4A8C3211687F
:1006300021F440310143116070475049C1F8E00195
:100640007047444A30320029116801D0014300E06C
:100650008143116070473F4A34320029116801D04C
:10066000014300E08143116070473A4A3832002963
:10067000116801D0014300E0814311607047354AA1
:1006800040320029116801D0014300E0814311602C
:100690007047304A44320029116801D0014300E01C
:1006A0008143116070472B4A10320029116801D034
:1006B000014300E0814311607047264A143200294B
:1006C000116801D0014300E0814311607047214A65
:1006D00018320029116801D0014300E08143116004
:1006E00070471C4A20320029116801D0014300E004
:1006F000814311607047174A24320029116801D0E4
:10070000014300E0814311607047124A50320029D2
:10071000116801D0014300E08143116070470D4A28
:1007200054320029116801D0014300E08143116077
:100730007047084A58320029116801D0014300E08F
:10074000814311607047034A60320029116817D055
:10075000014316E000380240FFFFF6EA10300024A3
:100760000030002000004742800E47420000FFFF9B
:100770000024F40000000020FFFCFF0F001047429F
:10078000814311607047194A0029116801D0014363
:1007900000E081431160704714490C31012808685A
:1007A00003D020F008000860704740F00800FAE726
:1007B0000E4A573A0029117801D0014300E08143E5
:1007C0001170704709481030016841F08071016074
:1007D00070470146054A0020583A12680A4200D084
:1007E000012070470149563908707047643802404B
:1007F000774910B5884206D101210846FFF753FF1B
:10080000002101205BE07349884206D101210220CA
:10081000FFF749FF0021022051E06F49884206D1CD
:1008200001210420FFF73FFF0021042047E06B492E
:10083000884206D101210820FFF735FF002108205A
:100840003DE06749884206D101211020FFF72BFFC8
:100850000021102033E06349884206D10121202085
:10086000FFF721FF0021202029E05F49884206D1BF
:1008700001214020FFF717FF002140201FE05B49C6
:10088000884206D101218020FFF70DFF0021802042
:1008900015E05749884202D1012184150AE05549E3
:1008A000884202D10121441504E0534988420AD10B
:1008B000012104152046FFF7F6FE00212046BDE881
:1008C0001040FFF7F0BE10BDF0B5002201274FF039
:1008D000030C0B6807FA02F52B40AB422CD10668DB
:1008E00053000CFA03F4A64306600E79D0F800E03A
:1008F0009E4046EA0E0606600E79012E01D0022EB9
:1009000012D18668A64386604E79D0F808E09E40F2
:1009100046EA0E0686604668AE43466045688E79B4
:100920009640B6B235434560C568A543C560CC79ED
:100930009C40C3681C43C460521C102AC9D3F0BD3C
:100940004FF6FF7101600021017141718171C17128
:10095000704708B541F480320092C261C1610099CC
:10096000C161C169C069009008BD024600201269DA
:100970000A4200D001207047006980B270470246E9
:10098000002052690A4200D001207047406980B2BD
:10099000704701837047418370470AB101837047F4
:1009A000418370474161704742694A4042617047E4
:1009B0004B07DB0E9A40C90810B500EB8100016AB5
:1009C0000F249C40A1430162016A1143016210BDE2
:1009D000000002400004024000080240000C0240F7
:1009E000001002400014024000180240001C0240A7
:1009F00000200240002402400028024010B50121DE
:100A0000CC022046FFF777FE2046BDE810400021CB
:100A1000FFF771BE30B5644B1A6847F6FF618A4331
:100A2000017D8468C568214344682C4321430468E0
:100A30000069214301431143196030BD0021017554
:100A4000016041608160C160016170475749C1F830
:100A5000A00070475449091F086070475248001FA2
:100A6000006800F0030070474F4A10B5121D01687E
:100A70001160131D1968D0E901242243D0E9034015
:100A800004436FF30A0122430A431A6010BD002198
:100A9000016041608160C1600161704742480C3073
:100AA0000068C0B27047404908B510310844009052
:100AB000006808BD3C4A10B5203201681160121D63
:100AC00041681160131D1968D0E902242243D0E95E
:100AD0000440044321F0F70122430A431A6010BD89
:100AE0004FF0FF310160002141608160C160016110
:100AF000416170472C482C30006870472A487C3090
:100B00000068704728497C310860704726484430A7
:100B1000006870472649086070472549091D08602C
:100B20007047234908310860704721490C3108603B
:100B300070471E49C1F8AC0170471C49C1F8B001AB
:100B40007047012181431948C0F8B4117047174913
:100B5000C1F8B80170471649143908607047124A45
:100B600038320029116801D0014300E0814311604F
:100B7000704701460C4A0020303212680A4200D009
:100B80000120704708493431086070470146064A21
:100B90000020303212680A4200D00120704702491A
:100BA0003431086070470000042C01400080254269
:100BB000A08525422DE9F043016821F00101016083
:100BC0000021016041608160C160016121214161BA
:100BD000B849B84A3D251039904202D18D60BDE830
:100BE000F083B44A4FF474661832904201D18E609B
:100BF000F5E7B04A4FF474173032904201D18F605C
:100C0000EDE7AC4A4FF0746C4832904202D1C1F823
:100C100008C0E4E7A74BA84A6033984201D1CA60F4
:100C2000DDE7A44CA54B7834A04201D1CB60D6E7D8
:100C3000DFF88082A24C08F19008404501D1CC60D9
:100C4000CDE7DFF870824FF03D5908F1A808404524
:100C500002D1C1F80C90C2E79A49DFF868820839DE
:100C6000404501D10D60BAE7964D1835A84201D133
:100C70000E60B4E7934D3035A84201D10F60AEE766
:100C8000904D4835A84202D1C1F800C0A7E78D4D6C
:100C90008C496035091FA84201D10A609FE7894A43
:100CA0007832904201D10B6099E7864A90329042A7
:100CB00001D10C6093E7834AA83290428FD1C1F8EA
:100CC00000908CE730B503687F4ACC6813400A680F
:100CD0002243D1E905452C432243CC6922430C6AC7
:100CE00022434C6A22438C6A22434C6B22438C6B16
:100CF00022431A430260426922F00703D1E90B2420
:100D000022431A4342610A6942604A6882608968E4
:100D1000C16030BD0021016041608160C16001613E
:100D200041618161C161016241628162C1620163AD
:100D30004163816370470029016802D041F00101DD
:100D400001E021F00101016070470029016802D033
:100D500041F4004101E021F40041016070470029A5
:100D6000016802D041F0200101E021F02001016082
:100D7000704741607047406880B27047002A02683F
:100D800002D042F4002201E022F40022026001615C
:100D900070470029016802D041F4802101E021F46C
:100DA0008021016070470AB101617047C1607047DE
:100DB000014600200968090300D50120704701465B
:100DC00000200968C90700D001207047406900F081
:100DD0003800704702463B4B00209A4202D2354A07
:100DE000103A01E0374A103A8B0001D5526800E012
:100DF0001268364B1A400A4200D001207047314A2F
:100E0000904202D22B48103801E02E4810382F4A69
:100E10008B0001EA020101D5C16070478160704713
:100E20000B0607D5436912B143F0800301E023F0BC
:100E300080034361802908D0002A026801F01E0166
:100E400001D00A4300E08A430260704730B51D4A72
:100E50000024904202D2174A103A01E0194A103A8F
:100E60001B4B194205D01E2303EAD12503682B40F2
:100E700002E0406900F08003880001D5506800E07E
:100E80001068124A1040084201D003B101242046E4
:100E900030BD0C4A904202D20648103801E00948A1
:100EA00010380A4A8B0001EA020101D5C16070477F
:100EB00081607047106002403D000020400F00201C
:100EC00000003D20106402403F801CF07D0F7D0F2C
:100ED0003C0F3C0FCD4910B5884206D101211020AE
:100EE000FFF709FC0021102020E0C949884202D107
:100EF00001214C0429E0C749884202D101218C0418
:100F000023E0C549884202D10121CC041DE0C34938
:100F1000884202D101210C0517E0C149884209D15C
:100F200001212020FFF7E7FB00212020BDE8104031
:100F3000FFF7E1BBBB49884202D101218C0704E0E5
:100F4000B94988420AD1012144052046FFF7C9FB6F
:100F50002046BDE810400021FFF7C3BB10BD7FB5A0
:100F60000446008A0D46C98820F44050014321827E
:100F7000A08941F20C618843A9882A8911436A89B2
:100F800002431143A181A08A20F44071A88908433B
:100F9000A0826846FFF7C0FA9C48844202D0A0486D
:100FA000844201D1039800E00298A189090400EB72
:100FB000C00101EB0010296801D5490000E089005B
:100FC000B0FBF1F06422B0FBF2F109010B096FF004
:100FD00018056B4300EB8300A3891D044FF0320317
:100FE00006D503EBC000B0FBF2F000F0070005E00F
:100FF00003EB0010B0FBF2F000F00F00084320817B
:101000007FBD4FF41651016000218180C1800181B4
:101010000C2242818181704710B5028A4C8822F4EB
:1010200070630A8822438C88C9880C4322431A4380
:10103000028210BD0021018041808180C180704703
:101040000029818902D041F4005101E021F40051CE
:1010500081817047028B02F47F420283028B0A4334
:10106000028370470029818902D041F4004101E0E8
:10107000C1F30E01818170470029818A02D041F4B9
:10108000006101E021F4006181827047C1F3080131
:10109000818070478088C0F308007047028A22F080
:1010A0000F020282028A0A43028270470029818964
:1010B00002D041F0020101E021F00201818170477C
:1010C000828922F40062828182890A438281704788
:1010D000028A22F020020282028A0A4302827047B8
:1010E0000029018A02D041F4804101E021F48041CD
:1010F00001827047818941F0010181817047002997
:10110000818A02D041F0080101E021F008018182CA
:101110007047028BD2B20283028B42EA0121018323
:1011200070470029818A02D041F0200101E021F0BE
:101130002001818270470029818A02D041F010018C
:1011400001E021F0100181827047828A22F00402BE
:101150008282828A0A43828270470029818A02D071
:1011600041F0020101E021F0020181827047002A72
:10117000828A01D00A4300E08A438282704710B518
:10118000C1F3421301F01F040121A140012B07D03C
:10119000022B07D01430002A026805D00A4304E06D
:1011A0000C30F8E71030F6E78A43026010BD0246C3
:1011B000002012880A4200D001207047C9430180F4
:1011C000704770B501F01F0501260024C1F34213DA
:1011D00006FA05F2012B0FD0022B0FD0838A4FEABB
:1011E00011210088134206FA01F600EA060001D038
:1011F00000B10124204670BD8389F0E7038AEEE741
:101200000A0A01219140C943018070470010014042
:101210000044004000480040004C004000500040A6
:101220000014014000780040007C004030B50D46BD
:101230002DED028B83B06A4601A903F0B7FC0028AC
:101240001CD1009CA069A178801E484306F051FE85
:101250009FED4F8B53EC182B06F05EFE06F01CFE44
:101260002860A0780199484306F043FE53EC182B00
:1012700006F052FE06F010FE6860002003B0BDECE0
:10128000028B30BD7CB50C4605466A4601A942A0DA
:1012900003F08CFC00280CD1009881698278891EAB
:1012A00051434908296080780199484340082060EB
:1012B00000207CBD7CB50C4605466A4601A937A0D6
:1012C00003F074FC00280CD1009881698278891E93
:1012D00051434908296080780199484340082060BB
:1012E00000207CBD2DE9F0478246C068C2B0A0EB6B
:1012F00001040D004FF00007A14610D078B14FF463
:101300008078854232D90021504603F0D7FA002870
:1013100002D1504603F0AAFC42B0BDE8F08700209D
:10132000FAE74646B44200D826462946504603F01E
:10133000C5FA0028F0D140AB32466946504603F06A
:1013400030F80028E8D13946504603F0B7FA0028B3
:10135000E2D141AB32466946504603F0BFF800285F
:10136000DAD14098A41B054441980744002CD8D1F9
:101370004946504603F0A2FA0028CDD1504603F06A
:1013800075FC0021504603F099FAC5E7012070472B
:10139000000000000000E03F303A0000313A000059
:1013A000A3490844C0F38F2070472DE9F04F9A46B7
:1013B000DDE909B889460346FFF7F2FFC5B2002010
:1013C0004FF0030E0121814011EA090F28D0994EF8
:1013D00036F815400C4326F81540DF6844000EFA35
:1013E00004F6B7430BFA04FC47EA0C07DF601F68FA
:1013F00002FA04FCB74347EA0C071F60012A01D038
:10140000022A0DD15F6889B28F430AFA00F189B2CE
:101410000F435F60996808FA04F4B143214399606F
:10142000401CC0B21028CDD3BDE8F08F00B5FFF747
:10143000B7FF01218140804802681143016000BD6F
:10144000FCB51646DDE907C50C00074608D0FFF7D6
:10145000EDFFCDE900C5324621463846FFF7A5FF2E
:10146000FCBD2DE9FC4F9946DDE90BB792460D0016
:10147000064622D0FFF7DAFF002201214FF00F0CC1
:1014800001FA02F028420DD0D00806EB8003186A5A
:101490005407E40E0CFA04F820EA080007FA04F4F2
:1014A00020431862521C102AEAD3CDE9009B534610
:1014B000022229463046FFF778FFBDE8FC8FF0B5E1
:1014C0000E460546FFF76CFF00225A49C4B24FF0A2
:1014D000010C03270CFA02F333420CD028684FEAC0
:1014E000420E07FA0EFE40EA0E00286031F81400A2
:1014F000984321F81400521CD2B2102AEAD3F0BD4E
:10150000F0B500220125032605FA02F30B4205D0AF
:101510000468570006FA07F39C430460521CD2B2D9
:10152000102AF1D3F0BDF0B500220127032607FAF7
:1015300002F33C460B4208D00568530006FA03FC50
:1015400025EA0C059C4025430560521CD2B2102AA6
:10155000EDD3F0BDF0B500220125032605FA02F314
:101560000B4205D00468570006FA07F31C430460D9
:10157000521CD2B2102AF1D3F0BDF0B500220126E0
:101580000324022706FA02F30B4209D00568530030
:1015900004FA03FC25EA0C0507FA03F31D43056072
:1015A000521CD2B2102AEDD3F0BDF0B500230127B2
:1015B000032507FA03F40C4209D0C6685C0005FA5B
:1015C00004FC26EA0C0602FA04F42643C6605B1CFF
:1015D000DBB2102BEDD3F0BD41F48032C261C161AA
:1015E000C261C169C0697047002102E0491C89B22B
:1015F00040080128FAD80846704700B5FFF7D0FE2A
:10160000012181400C4802688A43026000BD00B598
:10161000FFF7C6FE074931F8100000BD00B5FFF71F
:10162000BFFE044931F81000C04380B200BD000085
:101630000000FEBFC001002030380240FE4A0146D3
:10164000904200D10020FD4A914200D10120FC4A85
:10165000914200D10220FB4A914200D10420FA4A73
:10166000914200D10520F94A914200D106207047ED
:1016700070471CB50822032140B101280DD0032872
:1016800003D10821F148FFF7F3FF1CBDCDE900129B
:1016900001230022C021EE4806E0CDE9001201231B
:1016A00000224FF48441EB48FFF7DBFE1CBD7CB504
:1016B00030B1032803D10821E348FFF7D9FF7CBDEF
:1016C00008250324012300221903E148CDE9004540
:1016D000FFF7C7FE012300220421DF48CDE90045C2
:1016E000FFF7BFFE7CBD1CB50822032140B10128D5
:1016F0000DD0032803D10821D248FFF7B9FF1CBD44
:10170000CDE90012012300220321D44806E0CDE9EF
:101710000012012300224FF44061CD48FFF7A1FEE3
:101720001CBD1CB507220323990250B101280ED01D
:10173000022812D0032803D10721C148FFF798FFE0
:101740001CBDCDE9003201230022C5480CE0CDE9E3
:10175000003201230022BE4806E0CDE90032012319
:1017600000224FF44071BC48FFF77BFE1CBD1CB546
:101770000722032140B101280DD0032803D10721FE
:10178000AE48FFF775FF1CBDCDE900120123002212
:101790000C21B24805E0CDE90012012300226021AE
:1017A000AD48FFF75EFE1CBD1CB50722032140B10A
:1017B00001280ED0032803D107219F48FFF758FFC7
:1017C0001CBDCDE90012012300224FF4C061A348E3
:1017D00005E0CDE9001201230022C021A048FFF757
:1017E00040FE1CBD944A0146904200D19D48934A58
:1017F000914201D19B481030914A914201D19948C0
:101800002030904A914201D1964830308E4A914220
:1018100001D1944840308D4A914201D191485030D5
:1018200070472DE9FF4F87B09A46DDE914B913469A
:101830000446DDF85C80FFF7D5FF05467E488A4FF9
:101840000193844209D1386840F01000386008984C
:10185000FFF7AAFF25208DF80000834E7748361F3A
:10186000844209D1306840F4003030600898FFF7B6
:101870007EFF26208DF800007148844209D130682F
:1018800040F4802030600898FFF74BFF27208DF848
:1018900000006C48844209D1306840F40020306078
:1018A0000898FFF720FF34208DF800006648844236
:1018B00009D1306840F4801030600898FFF7F7FED7
:1018C00035208DF800006148844209D1386840F025
:1018D000200038600898FFF7CCFE47208DF8000004
:1018E0002046FFF7F7FA01268DF8036006208DF8F1
:1018F00001002046FFF7A2FE8DF802006846FEF7C1
:10190000E4FC1698ADF80A00ADF80EB0ADF810A0E2
:10191000ADF80C90ADF808800020287340F6FF70F9
:101920000590411E059101D30846FAE701A920461A
:10193000FFF715FBA08940F02000A0812E73A0893D
:1019400040F40050A0810BB0BDE8F08F2DE9FF41BD
:101950000446394800250C2617468846844206D19D
:10196000CDE90065029500230395FFF75AFF334840
:10197000844208D1CDE90065029500233A464146EC
:101980000395FFF74EFF2E48844208D1CDE900654C
:10199000029500233A4641460395FFF742FF294846
:1019A000844208D1CDE90065029500233A464146BC
:1019B0000395FFF736FF2448844208D1CDE900653E
:1019C000029500233A4641460395FFF72AFF1F4838
:1019D000844208D1CDE90065029500233A4641468C
:1019E0000395FFF71EFFBDE8FF812DE9FF47044681
:1019F000114800250C261F4690468946844205D191
:101A0000CDE9006502950395FFF70BFF0B48844273
:101A100008D1CDE9006502953B464246494603950B
:101A2000FFF7FFFE0648844223D1CDE90065029509
:101A30003B464246494619E0001001400044004040
:101A400000480040004C004000500040001401409D
:101A50000008024000180240000C02400000024052
:101A60000004024010000020443802400395FFF7B4
:101A7000D8FE9448844208D1CDE9006502953B46E2
:101A8000424649460395FFF7CCFE8F48844208D171
:101A9000CDE9006502953B46424649460395FFF76E
:101AA000C0FE8A48844208D1CDE9006502953B46D4
:101AB000424649460395FFF7B4FEBDE8FF8710B5DF
:101AC0000023FFF78FFEC18819B902894489A24219
:101AD0000DD0428983889A4201D100224281036855
:101AE00092B29B56521C428109B1491EC180D8B2A4
:101AF00010BD10B50C46FFF775FEC38842890DE096
:101B00008188914200D100220168895CA14201D103
:101B1000012010BD521C5B1E92B29BB2002BEFD174
:101B2000002010BDF0B516460F4684460024FFF78E
:101B300059FE0546C08840B1697B6046FFF7D9FF72
:101B400078B9E888A98888420BD00020F0BD6046AB
:101B5000FFF7B5FF3855697B884205D0641CA4B2F5
:101B600000E0761EB442F2DB0021641CA0B23954BE
:101B7000F0BD00B5FFF736FEC18829B9018940895B
:101B8000814201D1012000BD002000BD00B5FFF75A
:101B900029FEC1888088814201D1012000BD00203A
:101BA00000BD00B5FFF71EFE0021C180018141810B
:101BB00000BD00B50B46FFF715FE437300BD10B521
:101BC0000C460346FFF70EFE007B00280BD007E013
:101BD00019880906FCD59880641C18880006FCD575
:101BE00020780028F4D110BD70B515460E46044685
:101BF000FFF7F8FD007B00280DD0002309E02088C6
:101C00000006FCD5F05CA08020880006FCD55B1C9B
:101C10009BB2AB42F3D370BDC388828893420DD28E
:101C20000389934201D10022028103890268D154C1
:101C30000189491C0181C188491CC1807047244821
:101C40000188890603D58088C1B22248E4E770473D
:101C500021480088800606D51F48001D0088C1B2B3
:101C60001C481030D8E770471C4810B50088800623
:101C700005D51A48001D0088C0B201F05BF810BD00
:101C800010480088800606D50E48001D0088C1B2A5
:101C900010483030C0E770470B480188890604D5EA
:101CA0008088C1B20B484030B6E77047074810B58E
:101CB0000088800605D50548001D0088C0B201F0E7
:101CC00024F810BD004C00400050004000140140BA
:101CD0000010014010000020004400400048004077
:101CE00070B55A484168491C4160816811B18168EA
:101CF000491E8160AFF300800024554E18E006EBCA
:101D00008405686890B1017B81B1826872B1521E0E
:101D1000826069680AD1486909698847686801680A
:101D200081606868416809B900210173641CE4B2EC
:101D30003078A042E3D870BD464801684FF47A700D
:101D4000B1FBF0F0401EB0F1807F12D24FF0E022E4
:101D50005061414BF02083F8140D00209061072062
:101D600010613E48B1FBF0F13848C16001210170BB
:101D70007047FEE735480078002805D04FF0E02096
:101D8000016941F00201016170474FF0E0200169F3
:101D900021F00201016170472DE9F0472C4C054606
:101DA000DDF8209020781E4617468846052802D385
:101DB0000020BDE8F087182005F075FC0028F8D059
:101DC0000560C0E901850773C0E90469217804EB67
:101DD000810148602178491C2170EAE770B51C4BED
:101DE00000211A7806E003EB81046468844203D082
:101DF000491CC9B28A42F6D88A4218D003EB810046
:101E00004068EFF3108472B605E003EB8102491CD1
:101E10009568C9B255601A78521E8A42F5DC197865
:101E2000491E197005F06EFC002C00D162B670BD21
:101E300000210173704701210173704701688160BF
:101E400070474160704701607047000070000020DB
:101E500098020020DC0000200FE000E0C0C62D004A
:101E60002DE9FE4F164683460C004FF0010A02D0C2
:101E7000601E014212D00025574607FA05F02042A5
:101E800005D081B232465846FFF7EAFFB8BB6D1C59
:101E9000EDB2102DF1D30020BDE8FE8FDFF8F08207
:101EA000D8F80000204234D108F10409D9F8000024
:101EB00020422ED1B4F5807F37D012DC102C32D0E6
:101EC00008DC012C27D0022C27D0042C27D0082C8A
:101ED0001FD126E0202C28D0402C26D0802C18D1D1
:101EE00023E0B4F5805F22D00ADCB4F5007F1CD07B
:101EF000B4F5806F1BD0B4F5006F0AD117E008E08D
:101F0000B4F5005F13D0B4F5804F10D0B4F5004F96
:101F10000DD00120C0E706250AE0072508E00825C6
:101F200006E0092504E00A2502E0172500E028253F
:101F3000012E51D0F6B300200021CDE900010B465F
:101F40000A4621465846FFF77BFA2046FFF74CFB2E
:101F5000C7B25846FFF724FAC2B28E48016841F46E
:101F6000804101608C4827F003010844D0F808380C
:101F7000B907090F4FF00F0C0CFA01FC23EA0C0310
:101F8000C0F80838D0F808388A401343C0F8083839
:101F9000D8F80010A143C8F80010D9F80020A243D7
:101FA000C9F80020D8F800102143C8F8001078487C
:101FB0000C3000E012E00168A1430160011F0A68D3
:101FC000A2430A60012E0BD016B1026822430260C0
:101FD00008682043086006E00120ADE70220ABE777
:101FE0000168214301608DF808500A208DF809002E
:101FF0008DF80A708DF80BA002A8FEF766F94AE783
:1020000063490A6882430A60091D0A6882430A60BC
:102010005F490C310A6882430A60091F0A688243DB
:102020000A60002070475A4801686FF30F01016091
:10203000001D01686FF30F01016055480C30016805
:102040006FF30F010160001F01686FF30F01016062
:102050004F48143001686FF30F01016070474C481E
:1020600010B514300168C90704D001210160084689
:1020700000F0B8FD10BD464810B51430016889075E
:1020800004D502210160084600F0ACFD10BD4048B7
:1020900010B514300168490704D5042101600846D1
:1020A00000F0A0FD10BD3A4810B5143001680907D2
:1020B00004D508210160084600F094FD10BD3448A5
:1020C00010B514300168C90604D510210160084616
:1020D00000F088FD10BD10B52D4C1434206880062A
:1020E00003D52020206000F07DFD2068400603D548
:1020F0004020206000F076FD2068000603D5802097
:10210000206000F06FFD2068C00504D54FF480709A
:10211000206000F067FD2068800504D54FF4007052
:10212000206000F05FFD10BD10B5194C143420681C
:10213000400503D52015206000F054FD20680005FF
:1021400004D54FF40060206000F04CFD2068C0040E
:1021500004D54FF48050206000F044FD20688004D6
:1021600004D54FF40050206000F03CFD206840048E
:1021700004D54FF48040206000F034FD2068000456
:1021800004D54FF40040206000F02CFD10BD00008D
:10219000003C0140443802400030014070B5B94C69
:1021A00002074FF0800101D5218300E061834207DF
:1021B0004FF0400101D5218300E0618382074FF099
:1021C000200101D5218300E06183C1074FF0100099
:1021D00001D0208300E060834FF4806525831420C4
:1021E00000F0ECF86583BDE87040142000F0E6B81C
:1021F00010B5012000F0E8F8BDE8104040F6B83016
:1022000000F0DCB8A049087840F00400087040F005
:10221000080000F0D9B870B50D460646FFF78CFDF2
:1022200000F0E0F84AF6C87000F0C8F8964C0020BC
:10223000012DE57026716071A071607001D90820D0
:1022400060700320FFF7AAFF41F29415284600F0C2
:10225000B5F80320FFF7A2FF284600F0AFF80320EF
:10226000FFF79CFF284600F0A9F80220FFF796FF31
:10227000642000F0A3F8607840F0200000F0A4F89B
:1022800004202070FFF7BEFFFFF7B2FF0220A0700E
:10229000062000F099F82846BDE8704000F08EB89E
:1022A00008B57AA212680092774AD3788B4200D898
:1022B0000021507191711DF801100844C0B240F026
:1022C000800000F081F808BD70B51446FFF7E8FF04
:1022D0006D4D16E068792979884207D3002068712E
:1022E000A979491CC9B2A971FFF7DAFF20780A2839
:1022F0000BD00D280FD000F0B7F86879401C68713A
:10230000641C20780028E5D170BDA879401CC1B2BA
:10231000A971687901E0A9790020FFF7C1FFEFE713
:102320005949087820F00400087040F0080000F0D7
:102330004BB85549087840F00100087040F008009B
:1023400000F042B85049087820F00100087040F0D1
:10235000080000F039B84C49087840F002000870D5
:1023600040F0080000F030B84749087820F002003B
:10237000087040F0080000F027B8182000F024B8DA
:102380001C2000F021B870B50D4600F00700402178
:1023900041EAC00000F018F80024285D00F064F85D
:1023A000641CE4B2082CF8D370BD10B51446FFF7D6
:1023B00077FF2046BDE8104000F056B83449096860
:1023C0004843401EFDD2704710B52E4904464FF4D5
:1023D000807048832009FFF7E1FE04F00F00BDE89C
:1023E0001040DBE62DE9FC4100240122254D1602B8
:1023F00000942346314628460194FFF721F8012234
:10240000970200940023394628460194FFF718F8F4
:10241000009400230122102128460194FFF710F8B0
:10242000009400230122202128460194FFF708F898
:10243000009400230122402128460194FFF700F870
:10244000009400230122802128460194FEF7F8FF22
:102450006E836F8310206883202068834020688308
:1024600080206883BDE8FC8110B5064904464FF41E
:10247000807008832009FFF791FE04F00F00BDE88B
:1024800010408BE6001002408000002000401454F1
:102490007C00002070B52B4B002211461C68A40064
:1024A00004D51C68012244F080741C60264B45F260
:1024B00055541C600B2801D3072400E003245C6002
:1024C00000B3012820D0022820D0032820D00428DF
:1024D00020D0052820D0062820D0072820D040F280
:1024E000FF3408281FD040F2FF7509281DD040F6A0
:1024F000FF760A281BD00B2815D00C2815D00D28E4
:1025000015D015E0052113E00A2111E00F210FE09D
:102510001F210DE03D210BE07B2109E0FF2107E0B9
:1025200040F2FF1104E0214602E0294600E0314676
:1025300099604AF6AA2018604CF6CC401860104604
:1025400070BD000074380240003000404FF400605D
:10255000FE4908807047FD494FF48060088070474D
:10256000FB4904200880FB49002048617047F84976
:1025700001200880F749002048617047F3494FF473
:102580000060891E08807047F0494FF48060891E02
:1025900008807047EE490120891E0880ED49486196
:1025A0007047EB490420891E0880EA4902204861EF
:1025B000704770B50322E8A1E84805F00BFA002542
:1025C000E44C012618B9E6716672E5616562032282
:1025D000E3A1E24805F0FEF918B9E671A672E561DB
:1025E000A5620322DFA1DD4805F0F4F908B966729F
:1025F00065620322D8A1D94805F0ECF908B9A672A2
:10260000A5620322D8A1D54805F0E4F908B9E6721D
:102610002562E07908B1FFF7BDFFE07A08B1FFF766
:10262000C0FF207A08B1FFF7B5FFC84A607A921E52
:1026300018B111151180616A6163A17A11B14FF46B
:1026400000631380E279A3791A43237A1A4304D0F2
:10265000E26902EBD2725210E262E27A63791A43C3
:1026600004D0226A02EBD2725210226308B1606A6F
:102670006063002901D0A06AA06370BD70B50546F3
:102680000024B44E06E00A2000F077FBB078012861
:1026900002D0641CAC42F6D970BD10B5AB4C012120
:1026A0001A3C2046FEF761F902212046FEF75DF94B
:1026B00010212046FEF759F9AC4C20212046FEF7A8
:1026C00054F940212046FEF750F980212046FEF7BC
:1026D0004CF9A1152046FEF748F9A114A448FEF7CD
:1026E00044F99C490620087310BD10B5A14C204642
:1026F000FFF73FFA97492046BDE810401031FFF739
:102700005EBA944801210171C179027A114382793C
:10271000114302D0C169491CC161C17A4279114398
:1027200002D0016A491C0162417A11B1416A491C17
:102730004162817A002902D0816A491C8162704716
:102740009EB000F006FCFFF7F7FA0B20FFF7A2FEA1
:102750008948002606607D4D00961A3D3346324674
:102760004FF4004128460196FEF76AFE00230096CA
:102770001A46202128460196FEF762FE00230096A5
:102780001A46402128460196FEF75AFE002300967D
:102790001A46802128460196FEF752FE744F002209
:1027A00001213846FFF75CFBDFF8D0B118B974A1FE
:1027B0005846FFF704FA002208213846FFF750FB7D
:1027C00018B976A15846FFF7FAF9002210213846C9
:1027D000FFF746FB18B977A15846FFF7F0F94FF419
:1027E0008079012249463846FFF73AFB18B977A1AC
:1027F0005846FFF7E4F9012240213846FFF730FB45
:1028000018B978A15846FFF7DAF90124002300949B
:102810001A462146A84628460194FEF711FE0023D9
:1028200000941A46022140460194FEF709FE002357
:1028300000941A46102140460194FEF701FE4B4DCC
:10284000002300941A46202128460194FEF7F8FD43
:10285000002300941A46402128460194FEF7F0FD1B
:10286000002300941A46802128460194FEF7E8FDD3
:10287000002300941A46494628460194FEF7E0FDDD
:10288000002300941A46210338460194FEF7D8FD30
:1028900003252F48CDE900650122002311461A388F
:1028A000FEF7CEFD2A48CDE9006500230122042170
:1028B0001A38FEF7C5FDCDE900654FF4806A0023A4
:1028C000012251464046FEF7BBFDCDE900654FF4BD
:1028D00000690023012249464046FEF7B1FD4FF44E
:1028E000E13200212348FFF731F84FF416584246F1
:1028F00002212248FFF72AF8424600213F48FFF70D
:1029000025F80023012249463846CDE90045FEF767
:1029100097FDA7F81890AFF21523012211464FF446
:10292000FA700096FFF738FA0A4CE063AFF24523DD
:102930000122114664200096FFF72EFA2064CDE9AB
:102940000065002301225502294659E01A0C024075
:102950001A0802408800002052313100E2020020B3
:102960005232310052313200523331000004024001
:1029700000000240001401407400002000480040A4
:102980006B686F692074616F206E676174204446C4
:102990004D465F424954340A000000006B686F697D
:1029A0002074616F206E6761742057315F44300A74
:1029B000000000006B686F692074616F206E6761B2
:1029C000742057315F44310A000000006B686F6962
:1029D0002074616F206E6761742057325F44310A42
:1029E000000000006B686F692074616F206E676182
:1029F000742057325F44300A00000000001001408C
:102A0000E34F3846FEF71CFD7D83FFF746FE207B33
:102A1000A06104211020FFF7FEFB04F14B01002010
:102A2000FFF7B1FC0021DBA20846FFF74DFCE1A255
:102A300002210020FFF748FC4FF47A75284600F089
:102A40009CF9FFF7D5FBDDA105A8A26904F082FE81
:102A5000002105AA0846FFF737FC284600F08DF94B
:102A6000FFF7C6FB0021D9A20846FFF72DFCDC4981
:102A70004AF6AA2008606670DB4DDA4CDFF86C83FA
:102A8000A5F1440783463879A0B13E71786918B939
:102A9000D7A1DA48FFF793F87869012803D1D8A1C4
:102AA000D648FFF78CF87869022803D1D7A1D3481C
:102AB000FFF785F8B87908B1FFF76CFD787908B1B0
:102AC000FFF76FFD3878012804D0D3A2022100203F
:102AD000FFF7FAFB787801284FD1387022792A70F5
:102AE00063796B70A179A970E079E87094F808C0F7
:102AF00085F804C094F809C085F805C094F80AC0A8
:102B000085F806C094F801C0BCF1080F06D1CDE9E4
:102B10000010B448C4A1643004F01CFE60780B2897
:102B200010D1E8780DF1040CAB796A7929798CE839
:102B30000F00A8780090AB486B782A78C0A1643069
:102B400004F008FEC8A202210020FFF7BDFBA54942
:102B5000C9486431FFF733F8C820FFF78FFD7E7056
:102B6000B87840B1C5A202210020FFF7ADFBBE70CE
:102B7000FFF71FFD00E03E707E70F86900EBD0703B
:102B80004010F862B969884207D3FFF7F0FCFE7184
:102B9000BE71FE61FE627E703E70386A00EBD070DE
:102BA00040103863B969884206D3FFF7D9FCFE723A
:102BB0007E713E623E633E70786A7863012804DB72
:102BC000A8F800A07E727E627E63B86AB8630128AE
:102BD00004DBA8F80090BE72BE63BE628049C1F8F3
:102BE00000B050E738B5804C0546443C01286ED112
:102BF0007E480A380168090401684FEA816126D4D9
:102C0000002901684FEA416110DB006800294FEAA2
:102C1000006005DB002801DB44203EE038203CE07A
:102C2000002801DB342038E0232036E0006800294A
:102C30004FEA006005DB002801DB32202DE0302068
:102C40002BE0002801DB362027E0422025E0002988
:102C500001684FEA416110DB006800294FEA00601B
:102C600005DB002801DB312017E0392015E00028C2
:102C700001DB352011E041200FE0006800294FEA18
:102C8000006005DB002801DB332006E02E2004E095
:102C9000002801DB372000E04320E0737649C0B212
:102CA0008DF800008889800408D508880006FCD5C6
:102CB0009DF80000888008880006FCD5E078401C5C
:102CC000C0B2E0700A2802D30120FFF799F9002072
:102CD0000121082D09D0102D0FD0B5F5807F03D12B
:102CE000A0694000E061206238BD6279002AFBD112
:102CF000A171217BA161E06238BDA279002AFBD1DC
:102D00006171217BA161206338BD374A443ABD28F7
:102D100001D100215173334B517B5854D87810B9ED
:102D20000120012904D0302901D2491C5173704778
:102D30005070FAE72C4A10B50023443A522800D1CB
:102D40009373284C917B32340229605404D030298B
:102D500007D2491C917310BD10780128F9D19070E9
:102D6000F7E7937310BD49494FF40060088370473B
:102D700046494FF4006048837047454908B50A68E2
:102D800000920A68009BD21A8242FAD308BD000062
:102D90000010024053544D333246343037564554B8
:102DA0000A0D43726561727462795226442D54494A
:102DB0005300000057656C636F6D650054696D6565
:102DC00072206F7574202564000000002D2D2D2DBC
:102DD000544953382050524F2D2D2D2D0000000006
:102DE00000300040B0020020CC0000201A0C02404D
:102DF0002F4C45443030303E0D0A00000010014099
:102E00002F4C45443030313E0D0A00002F4C4544D4
:102E10003030323E0D0A00005761697420666F72CF
:102E20002043617264000000253032782025303262
:102E300078202530327820253032782C310000007F
:102E40002530327820253032782025303278202500
:102E500030327820253032782025303278202530E5
:102E600032782C310000000057616974696E672068
:102E700050432E2E2E00000000480040446F6F7219
:102E8000206F70656E65642E2E0000000000024009
:102E9000740000207047FEE7FEE7FEE7FEE770479C
:102EA00070477047704710B5FEF71AFF10BD00005D
:102EB0000CB50022544900920192086840F4803019
:102EC00008604FF4A043086800F4003001900098B7
:102ED000401C0090019810B900989842F3D10868FE
:102EE000800334D50120019047484030026842F009
:102EF000805202604548026842F440420260424803
:102F0000083002680260026842F40042026002680F
:102F100042F4A0520260031F3D4A1A600A6842F060
:102F200080720A600A689201FCD53A4940F2057243
:102F30000A60016821F003010160016841F00201AB
:102F400001600168C1F381010229FAD10CBD01922F
:102F50000CBD314810B5016841F4700101602A4888
:102F6000016841F001010160274A00210832116027
:102F700002682A4B1A400260031D294A1A6002683F
:102F800022F48022026020480C300160FFF790FF9D
:102F900021494FF000608039086010BD70B51A4DAE
:102FA000083528681F4B204910F00C0004D05E1033
:102FB000042803D0082803D00B601BE00E6019E042
:102FC000114A121D1068C0F38054106800F03F00D1
:102FD00014B1B6FBF0F001E0B3FBF0F01368126837
:102FE000C3F388135843C2F30142521C5200B0FB92
:102FF000F2F0086028680C4AC0F30310121D105C40
:103000000A68C2400A6070BD00380240007000408B
:1030100008544007003C024088ED00E0FFFFF6FE48
:10302000103000240024F400DC000020072901D027
:1030300008290FD1474A01EB8101036842F821308A
:1030400002EB810143684B6082688A6002690A6111
:10305000C068C860704700EB80013E4850F821000E
:1030600000B100470420704700EB8001394800EBB5
:103070008100406800B1004704207047F0B4154655
:103080000E4663B100EB8001324800EB8100046919
:103090002CB129463046A446F0BC1A4660470420AD
:1030A000F0BC7047F0B415460E4663B100EB8001EA
:1030B000284800EB8100C4682CB129463046A4465C
:1030C000F0BC1A4660470420EAE730B40C4600EB37
:1030D0008001204800EB810083681BB1204630BC92
:1030E0001146184730BC042070471B487047012028
:1030F0007047012070470120704701207047012070
:10310000704701207047012070470120704701205F
:10311000704701207047012070470120704701204F
:10312000704701207047012070470120704701203F
:10313000704701207047012070470120704701202F
:10314000704701207047012070470120704701201F
:1031500070470000F00000200000FC422DE9F04123
:10316000044600790027F8B1266B04F13401607839
:10317000012332468846FFF795FF08B1012713E087
:1031800000202071606AE169301A88420CD2E5782B
:1031900008E0E06901230644607832464146FFF7C3
:1031A00081FF6D1E022DF4D23846BDE8F08170B566
:1031B0000446006B0E460025B0420FD02046FFF7B4
:1031C000CDFF05000AD160780123324604F13401B5
:1031D000FFF754FF08B16E1E01252663284670BD17
:1031E00070B50446FFF7BAFF05004FD120780328D9
:1031F00045D16079012842D1420204F13400002116
:10320000064602F0BCFC552084F83202AA2084F85D
:103210003302522084F8340084F83500612284F8A7
:103220003620412084F83700722184F8181284F87F
:10323000191284F81A0284F81B22206984F81C02EF
:10324000010A84F81D12010C84F81E12000E84F885
:103250001F02E06884F82002010A84F82112010CA0
:1032600084F82212000E84F82302226A0123521CE1
:10327000226360783146FFF715FF0020607100225D
:1032800060781146FFF721FF00B10125284670BD87
:103290008269891E921E8A4201D800207047C26A44
:1032A000807801FB002070472DE9F0410D4604466F
:1032B00002290BD3A069A84208D920784FF0FF3625
:1032C000012806D002282AD0032835D0012630460E
:1032D0006BE7606A05EB550700EB57212046FFF7C7
:1032E00066FF0028F3D1C7F3080020447F1C90F844
:1032F0003480606A00EB57212046FFF758FF002812
:10330000E5D1C7F30800204490F8341048EA0120C2
:10331000E90701D00609DAE7C0F30B06D7E7606AD0
:1033200000EB15212046FFF742FF0028CFD1E8B27D
:1033300004EB4000868ECAE7606A00EBD511204698
:10334000FFF735FF0028C2D140F2FF1000EA8500E8
:10335000204490F83410D0F8350041EA002020F0E5
:103360007046B4E72DE9F04716460D46044602299B
:1033700002D3A069A84202D80220BDE8F0872078D5
:1033800006F0FF084FF00109012820D0022850D094
:103390000328F1D1606A00EBD5112046FFF707FF43
:1033A0000028EAD140F2FF1101EA850121444FF0E3
:1033B0007043D1F8352003EA0222324301F8342F5A
:1033C000130A4B70130C8B70120ECA7041E0606AC6
:1033D00005EB550700EB57212046FFF7E8FE0028D4
:1033E000CBD1C7F30800204434307F1CE90703D059
:1033F000017868F31F1100E03146017084F80490F1
:10340000606A00EB57212046FFF7D1FE0028B4D1B7
:10341000C7F3080121443431EA0702D0C6F307128A
:1034200005E00A78C6F3032302F0F0021A430A709B
:103430000FE0606A00EB15212046FFF7B8FE002878
:103440009BD1E9B204EB4101320A81F8348081F862
:10345000352084F8049090E72DE9F0410F460446AA
:10346000022916D3A069B84213D900261FE03946B5
:103470002046FFF719FF05001CD0012D09D0681C5C
:1034800009D0002239462046FFF76CFF060011D113
:1034900003E002260EE001260CE02069411C05D065
:1034A000401C2061607940F0010060712F46A069E6
:1034B000B842DCD8304678E62DE9F0410F000646E8
:1034C00005D0FFF7F1FE022808D201206DE6F5686D
:1034D00015B1B069A84207D8012505E0411CF5D017
:1034E000B1698142F2D83D462C46B069641CA042C5
:1034F00002D80224022D0AD321463046FFF7D4FE1B
:1035000038B1411CE2D00128E0D0AC42EDD100201E
:103510004BE66FF0704221463046FFF723FF30B98B
:1035200057B1224639463046FFF71CFF20B101282B
:103530000DD00124204638E6F4603069411CF9D0F2
:10354000401E3061707940F001007071F2E74FF079
:10355000FF34EFE770B5C18083680D460446012B48
:1035600034D020688169994230D923B90178032980
:1035700004D1836A13B18078060110E00189A94261
:1035800024D9806A11E0FFF78FFE0346401C1BD050
:10359000022B1BD320688069984217D9AD1B206885
:1035A000B5421946EFD2FFF773FEE36070B100EB4E
:1035B0001510206105F00F013422206802EB411143
:1035C00008446061002070BD012070BD022070BD04
:1035D0002DE9F041C78804467F1C38040E46000CD4
:1035E0002CD0206950B3390759D1401C2061E168C3
:1035F000206829B18278521E12EA171F04D04EE0CB
:103600000089B8421AD94AE0FFF74EFE0546012864
:1036100018D9681C2FD020688169A94239D86EB1A9
:10362000E168FFF749FF05000AD0012D0AD0681CA8
:1036300021D02068FFF792FDE8B905E00420B4E549
:103640000720B2E50220B0E520684FF400720021A7
:10365000343002F094FA29462068FFF719FE2168F9
:1036600000264FF0010808630CE080F80480206811
:10367000FFF774FD08B1012097E52068016B491C34
:10368000761C016320688178B142EED8016B891BFA
:103690000163E56029462068FFF7FAFD2061E780B5
:1036A00007F00F013422206802EB411108446061E9
:1036B00000207AE570B50E4605460021FFF74AFF67
:1036C00088B9002429692868FFF771FD58B969692C
:1036D0000978E5290BD051B1002401212846FFF7D4
:1036E00077FF0028EED0042800D1072070BD641CAD
:1036F000B442F2D170BD2DE9F05F04460021FFF71E
:1037000029FF00287AD1FF254FF6FF70AB462084B1
:1037100021692068FFF74BFD07007CD1666930788E
:1037200048B1F17AE52801F03F0169D00A0704D5D4
:103730000F2965D105E004276DE00F2901D08DB375
:103740004DE0E16979B3420606D596F80DB020F058
:103750004000E28805462284A84236D1727B5A4551
:1037600033D130788A4620F04000401EB14600EB4D
:10377000800101EBC0064FF000080127FB4810F85C
:10378000081001EB0900008877B102F095FA0746AE
:10379000FF2E1AD23AF81600761C02F08DFAB842C3
:1037A00013D105E016E02FE0A0F57F41FF390CD1E1
:1037B00008F10108B8F10D0FE0D399F800004006B8
:1037C00006D52FB13AF8160010B1FF25EDB21BE077
:1037D0006D1EFBE7304602F02EFA58451BD0A0695B
:1037E000C17AC9070CD10B210022491E07D316F854
:1037F000012B10F8013BD21AF7D001E00CE052B1D6
:103800004FF6FF70FF25208400212046FFF7E0FEE1
:1038100007003FF47DAF3846BDE8F09F2DE9F35F28
:10382000FF2504462E4604274FF6FF7A4FF0000B83
:1038300067E02068FFF7BBFC070066D1626910787B
:1038400078B1D17AE52801F03F0108D021F02003BA
:10385000082B08D00023DDF804C0634505D0FF2500
:1038600040E0042751E00123F5E70F2901D0B5BB63
:103870003FE0410605D5567B20F04000E188054633
:103880002184A8422CD1507BB04229D11078DFF896
:10389000DC9200F03F00401E00EB800101EBC00114
:1038A0000020E7690123D44619F800809044B8F855
:1038B000008033B1FF2913D227F811804346491CF9
:1038C00001E0E0450CD1401C0D28EDD310784006F6
:1038D00003D5FF2904D227F811B06D1E01E00DE0D9
:1038E000FF25EDB200212046FFF772FE070008D049
:1038F0000BE0104602F09FF9B04208D0A4F820A0D7
:1039000005E02169002994D10FB1C4F810B0384600
:10391000BDE8FC9F2DE9FF5F04460C22D4E9067642
:103920003946684602F023F99DF80B00810602D55E
:10393000062004B070E7C00718D00020F8720125F7
:10394000E0612B4632466946384602F038F9204697
:10395000FFF7D1FE10B96D1C642DF2D3642D0BD08E
:103960000428E6D19DF80B00F872E6619DF80B0083
:1039700080070DD5002002E00720DAE7401C36F86A
:1039800010100029FAD10D211930B0FBF1F500E03B
:10399000012529462046FFF78DFE06006BD16D1EDE
:1039A00050D0E088411B2046FFF7D4FD060062D1CD
:1039B000A06902F040F94FF6FF7A03902169206870
:1039C000FFF7F5FB060056D16169D4F81C90039807
:1039D00048730F20C872002008738876EEB2C8764C
:1039E000701E00EB800202EBC0030022DFF87CB106
:1039F00001F1010801E0504502D039F813005B1CC9
:103A00001BF802C001F80C001BF802704FEA102CE2
:103A100007F808C000B95046521C0D2AEBD3504598
:103A200002D039F8130008B946F040060E7021683C
:103A30000120087100212046FFF7CAFD06001AD1B7
:103A40006D1EBBD121692068FFF7B1FB060012D1C2
:103A500020220021606902F092F8D4E905010B22CE
:103A600002F085F8A0696169C07A00F01800087357
:103A700021680120087130465BE72DE9F041018C97
:103A80000446C688A1F57F40FF3800D13146204664
:103A9000FFF760FD05001ED1E5274FF00108216901
:103AA0002068FFF784FB050012D120220021606905
:103AB00002F065F860690770216881F80480E08889
:103AC000B04208D200212046FFF782FD0500E6D073
:103AD000042D00D102252846EDE42DE9F0410D46E4
:103AE00001F10904016969B3002341692E27CA5C09
:103AF0005B1C202A18D0052A00D1E522092B01D110
:103B000004F8017BA2F14106192E0BD891F80CC0E4
:103B1000092B01D3102600E008261CEA060F01D06D
:103B20002032D2B204F8012B0B2BE0D3CA7A2A72CE
:103B30000A7FD1F81D3042EA03222A600A8BAA804C
:103B4000C98AE9804FF0000884F80080AF69002F2F
:103B500020D001690024D9B1E969C9B1018CA1F56E
:103B60007F42FF3A14D0C6690EE00000A081000831
:103B7000002102F087F818B1E969491EA14201D875
:103B8000002405E03855641C36F8020B0028EFD1FC
:103B900007F804808FE4FFB583B01D46144606463F
:103BA00004E004A802F054F800281AD0641EF8D2E9
:103BB000307800B9A5B90498019600900198007872
:103BC0003F2810D02A280ED001A802F041F807465D
:103BD000684602F03DF80446A7421AD1002FEDD105
:103BE000012007B0F0BD00221346019810F8011B18
:103BF00001903F2915D0012300783F28F5D02A28CD
:103C0000F3D0DDE90010FFF7C6FF0028E8D10098E7
:103C1000047804A802F01CF80DB1002CCBD10020D0
:103C2000DFE7521CE8E72DE9F84F884683460D6828
:103C300000E06D1C28782F28FBD05C28F9D00024E8
:103C4000DBF81C902646A85D761C202815D32F286B
:103C500013D05C2811D0FF2C50D2012102F012F8B1
:103C600007004BD0802F04D20146FAA001F08EFF4E
:103C7000F0BB29F81470641CE5E7AA19C8F8002005
:103C8000202801D2042600E000260021012C05D0C6
:103C9000022C31D1B9F802002E2817D1B9F8000052
:103CA0002E2813D129F814100020A04201D22E2171
:103CB00000E02021DBF818201154401C0B28F4D31D
:103CC000DBF8181046F020020A54AEE009EB44007D
:103CD00030F8020C20280ED02E280CD044B129F840
:103CE00014100B222021DBF8180001F048FF00E03F
:103CF00004E0002706E0641E002CE7D10620BDE8A2
:103D0000F88F7F1C39F817002028FAD02E28F8D019
:103D10001FB146F0030600E0641E2CB109EB44001D
:103D200030F8020C2E28F7D14FF0000A0820D046B8
:103D3000009039F817507F1C0DB3202D03D02E2D85
:103D400004D1A74202D046F00306F2E700998A4563
:103D500001D2A74219D10B290FD0A74201D046F0BA
:103D600003060CD84FF00B0000904FEA88602746FE
:103D70004FF0080A4FEA1068DBE746F00306DBF86D
:103D800018000178E5292ED02FE0802D0CD30021DA
:103D9000284601F077FF050003D0B148284410F809
:103DA000805C46F0020625B12946AEA001F0EEFE89
:103DB00018B15F2546F003060EE0A5F14100192871
:103DC00002D848F0020807E0A5F16100192803D8DD
:103DD000203D48F00108ADB2DBF8181001F80A5098
:103DE0000AF1010AA5E7052101700098082803D10E
:103DF0004FEA88604FEA1068C8F38100032803D0B7
:103E00006FEA0801890701D146F00206B10709D41B
:103E100008F00301012901D146F01006012801D163
:103E200046F00806DBF81800C672002067E773B595
:103E300004460199002508782F280ED05C280CD064
:103E400020684069A06001980078202809D20021EC
:103E50002046FFF77FFB65617CBD491C0191A56091
:103E6000F1E701A92046FFF7DEFE0028F4D1204645
:103E7000FFF741FCA169C97A68B10428ECD18A0630
:103E800005D5A56065614807EBD500207CBD4907D5
:103E9000FCD405207CBD4907FCD46169C87AC00602
:103EA000F7D5206801F07AFEA060DAE72DE9F0434B
:103EB00084464FF0FF30DCF80070002F30D03C46D5
:103EC00000E0641C2178202932D33A29F9D13978CD
:103ED0007A1C30390A2906D2A24204D109291FD2FC
:103EE0000846641C21E0DFF87891002509F190096B
:103EF000641C59F825303A4612F8011B13F8016B7F
:103F0000A1F16108B8F1190F01D82039C9B216B171
:103F10008E42F1D001E0A24204D06D1C092DE8D3FD
:103F2000BDE8F083092DFBD22846CCF80040F7E726
:103F30004E480078F4E710B5044600202071401E7A
:103F400020632046FFF733F908B1032010BDB4F811
:103F50003202A0F52A41553901D0022010BD94F853
:103F60006A00B4F86B1040EA01214148B0EB012F20
:103F700008D094F88610B4F8872041EA0221B0EB0B
:103F8000012F01D1002010BD012010BD2DE9FF47F8
:103F90004FF000080646C0F8008017460846FFF7B5
:103FA00085FF050003D50B2004B0BDE8F08731483C
:103FB00050F8254094B13460207820B16078FFF744
:103FC00053F8C1070CD084F80080E8B24646607010
:103FD000FFF741F8C10708D00320E5E70C20E3E72D
:103FE0000FB1400704D40020DEE71FB1400701D520
:103FF0000A20D9E7002529462046FFF79CFF012823
:1040000023D100206A4604EB001191F8F63101F546
:10401000F9712BB10B7AD1F8091043EA012100E0C4
:10402000002142F82010401C0428ECD300279046C1
:1040300058F8275025B129462046FFF77CFF00E0BD
:104040000220D8B17F1C042FF2D3032814D0E8BB80
:1040500014E00000222A3A3C3E3F7C7F0000000032
:10406000208100082B2C3B3D5B5D0000A40100205B
:104070000046415428030020012095E7B4F83F0092
:10408000B0F5007F5CD1B4F84A0028B994F8580024
:10409000D4F8591040EA0120E06194F84430814698
:1040A000E370012B01D0022B4AD194F841704343B5
:1040B000A7705FB1781E074242D1B4F84510218144
:1040C00008073DD1B4F8470038B900E038E094F86B
:1040D0005400D4F8552040EA0220B4F842207AB3C4
:1040E00002EB030C0CEB111C604529D3A0EB0C0078
:1040F000B0FBF7F020B3012740F6F678404500D337
:1041000002274FF6F678404500D30327801CAC44C5
:10411000C4F82CC02A44A061C4E90852032F11D06E
:1041200071B1D118A162022F17D000F0010100EB8C
:10413000400001EB500000F2FF10B9EB502F0ED2FF
:104140000D2031E70029FBD194F86010D4F86120EC
:10415000800041EA0221A162EDE74000EBE74FF069
:10416000FF302061E06080206071032F2FD1B4F810
:10417000640001282BD12046691CFFF718F830BBDA
:104180006671B4F83202A0F52A4155391FD194F86E
:104190003400D4F8351040EA0120FE49884216D197
:1041A00094F81802D4F8191240EA0120FA4988421A
:1041B0000DD194F81C02D4F81D1240EA01202061B0
:1041C00094F82002D4F8211240EA0120E060F3497B
:1041D00027704888401C4880E080666103E710B57E
:1041E00038B1016829B10A781AB1CA888088824238
:1041F00001D0092010BD4878FEF736FFC007F9D07E
:10420000032010BD17B581B014460298009068468F
:10421000FFF74CFE002802DA0B2004B010BDE04B83
:10422000002253F8201001B10A700199002900D032
:104230000A7043F8201001D0012C01D00020ECE7D7
:10424000002202A901A8FFF7A1FEE6E72DE9F74F3A
:104250008EB006000ED04FF0000902F01F0727F0C5
:1042600001020FA96846C6F80090FFF78FFE040010
:1042700004D094E0092011B0BDE8F08F4FF4007035
:1042800001F0FCFC5FEA00080AD00AA8CDE90608A4
:1042900068460F99FFF7CBFD059D040002D003E0AF
:1042A0001120E8E705B9062417F01C0F4CD054B1D3
:1042B000042C03D16846FFF72DFB0446059D47F00B
:1042C000080754B152E0E87A10F0110F01D007242A
:1042D0004CE0780701D5082448E0380742D5FEF7BE
:1042E00004FFA873010AE973010C2974000E6874B5
:1042F00085F80B9085F81C9085F81D9085F81E9028
:1043000085F81F902946009801F048FC824600215C
:10431000284601F04CFC00990120BAF1000F087109
:104320001ED000985146D0F830B0FFF795F8040041
:104330001CD10099AAF10100C86059460098FEF707
:1043400036FF04000AD011E084B9E87AC10601D52D
:1043500004240BE0B90701D5C007B8D1380701D54F
:1043600047F020070098006BC6E90705404601F0BA
:1043700087FCA4B9B77186F807904F462946009884
:1043800001F00CFC3061287FD5F81D1040EA0120B7
:10439000C6E90270B76100983060C088B0802046DE
:1043A00069E72DE9F84F894600219A4616460446EA
:1043B0001960FFF714FF002812D1E07900280FD10F
:1043C000A079C0070BD0D4E90210401A04F12401EF
:1043D0004FF0010B009186427CD906467AE0072017
:1043E0008DE4A068C1055DD122689178491E01EA7B
:1043F000502111F0FF0709D1F8B110466169FEF7AD
:1044000053FF02281BD3411C46D0606161692068BC
:10441000FEF73EFF98B100EB0708750A23D020682D
:104420007A1981788A4200D9CD1B40782B464246C2
:104430004946FEF723FE78BB04E02069E1E702204D
:10444000E0715CE4A07940060BD5A169A1EB0800FE
:10445000A84206D209EB40204FF40072009901F007
:1044600086FB6D022CE0A269424519D0A079400676
:104470000AD52068012300994078FEF713FE58B949
:10448000A07920F04000A0712068012342464078C6
:104490000099FEF7F3FD18B184F807B001202EE46F
:1044A000C4F818802089C0F30800C0F50075B54233
:1044B00000D9354601192A464846243101F057FBF8
:1044C000A068A9442844A060DAF800004119761BCE
:1044D000CAF80010002E84D1002010E42DE9F84F16
:1044E000894600219A46164604461960FFF777FE72
:1044F000002806D1E079002803D1A079800701D4F3
:10450000072093E4A06804F1240182194FF0010B05
:104510000091824276D395E0A068C10576D12268E9
:104520009178491E01EA502111F0FF0512D108B11E
:10453000616902E0206928B900211046FEF7BCFF3E
:1045400000285FD0012834D0411C57D06061216918
:1045500001B92061A07940060BD520680123A2692A
:1045600040780099FEF79EFDC0BBA07920F0400086
:10457000A07161692068FEF78BFED0B100EB0508E1
:10458000770A2CD02068EA1981788A4200D94F1B1B
:10459000407807E05252614172724161A4010020EB
:1045A000280300203B4642464946FEF77BFDA8B95A
:1045B00002E00220E07139E4A169A1EB0800B842F1
:1045C0000AD209EB40214FF40072009801F0CFFAB3
:1045D000A07920F04000A0717D0229E00EE0A169E1
:1045E000414511D0D4E9020188420DD2206801234F
:1045F000424640780099FEF741FD28B184F807B0A3
:10460000012013E421E001E0C4F818802089C0F300
:104610000800C0F50075B54200D9354620442A4649
:104620004946243001F0A3FAA07940F04000A0717F
:10463000A068A9442844A060DAF800004119761B5C
:10464000CAF80010002E7FF467AFD4E90201884257
:1046500000D9E060A07940F02000A0710020BFE602
:1046600070B50446FFF7BBFD00280ED1A1798A067C
:104670000BD548060ED52068012304F124014078AB
:10468000A269FEF70FFD08B1012070BDA07920F0EE
:104690004000A071E1692068FEF789FD0028F4D18F
:1046A000256AE87A40F02000E872207B2877A0890C
:1046B000000A6877E068000CA877E068000EE877E9
:1046C0002846216901F073FAFEF70FFDA875010A6B
:1046D000E975010C2976000E68760020A874E8744C
:1046E000A07920F02000A0712168012008712068C5
:1046F000BDE87040FEF774BD10B50446FFF7B0FF8B
:10470000002806D12046FFF76AFD002801D10021CC
:10471000216010BD01B56846FFF7C8FB002801DA2B
:104720000B2008BDFE490870002008BD31B58EB0D1
:1047300000220EA96846FFF729FC040013D14FF4AC
:10474000007001F09BFA050010D00AA8CDE906051B
:1047500068460E99FFF76BFB0446284601F090FA75
:1047600034B1042C12D020460FB030BD1120FBE72D
:10477000059848B1C07AC00608D50599009801F09F
:104780000DFA00994861EEE70298FAE70524EAE796
:104790002DE9F34796B00E4616994FF0000A52469F
:1047A00081F800A016A96846FFF7F0FB050077D155
:1047B0004FF4007001F062FA5FEA000809D012A815
:1047C000CDE90608009834464FF02F094069029061
:1047D00053E0112018B0BDE8F08701216846FEF7CC
:1047E000B9FE05004CD100216846FFF717F8050017
:1047F00046D10599009801F0D1F902900021684650
:10480000FEF7A8FE05003BD100216846FFF706F839
:1048100005000BD10599009801F0C0F9B8420BD002
:1048200000216846FEF7D4FE0500EDD0042D01D02E
:1048300035BB01E0022523E01698CDE910040AA952
:104840006846FFF74AF916990DF131000A7802B16E
:104850000846002200E0521C835C002BFBD1D31CD5
:104860009C4205D211250BE0521E641E835C0B5541
:10487000002AF9D1641E01F80490029F002FACD1E8
:10488000169801469DB9A64A1278303200F8012BDD
:104890003A2200F8012BB44203D100F8019B06E054
:1048A0000AE00A5D641C00F8012BB442F9D380F8D9
:1048B00000A0404601F0E4F928468BE72DE9F047D7
:1048C0000D460446FFF78BFC5FEA000883D1E079D0
:1048D00000286CD1E068A84203D2A179890700D4EE
:1048E00005460027A0684FF00109A7600DB32268B4
:1048F0004FF0020A91784E0268B1691E401EB1FB6A
:10490000F6F1B0FBF6F3994205D3711E8843A0601F
:104910002D1A61690CE0216949B900211046FEF7A2
:10492000CBFD014601283FD0481C4DD0216161617B
:10493000D1B926E0A0798007206805D5FEF7BCFD37
:10494000010004D1354611E0FEF7AEFC0146481CDB
:104950003AD0012928D920688069884224D9616128
:10496000A068AD1B3044A060B542E3D8A0682844DD
:10497000A060E80505D02068FEF78AFCA0B100EB36
:1049800055272089C00524D0A269BA4221D0A07938
:1049900004F1240540060FD52068012329464078FC
:1049A000FEF780FB80B903E084F807A0022012E73D
:1049B000A07920F04000A071206801233A46407899
:1049C0002946FEF75BFB18B184F80790012002E747
:1049D000A761D4E90201884204D9E060A07940F0DF
:1049E0002000A0714046F6E673B584B0040007D0FD
:1049F000002205A96846FFF7C9FA050003D02DE09B
:104A0000092006B070BD009820604FF4007001F0DE
:104A100035F906000CD001A8C4E906062046059920
:104A2000FFF705FA0546304601F02AF915B112E004
:104A30001120E6E7616931B1C87AC00612D5009845
:104A400001F0ACF8A06000980021C088A08020464A
:104A5000FEF780FD0546042D04D00DB10020206036
:104A60002846CEE70525F9E710B50446FFF7B7FB62
:104A7000002801D10021216010BD2DE9FE438846A8
:104A80000546FFF7ACFB04002FD1B8F1000F12D0A0
:104A90004FF4007001F0F2F8060012D06846C5E944
:104AA000060600212846FEF7B9FE00270446042822
:104AB0000AD054B116E000212846FEF74BFD04460B
:104AC00013E01120BDE8FE832F6141462846FFF721
:104AD00004F800212846FEF77BFD0446042801D196
:104AE00000242F61304601F0CBF82046EAE72DE99B
:104AF000F0410C46064601F1090721463046FFF712
:104B0000BCFF050015D1A4B1607A90B1A16929B1AB
:104B100000231A46706AFFF73EF850B9002301E0FF
:104B2000A40100201A463946706AFFF734F80028BD
:104B3000E3D02846BDE8F08170B50D460446114625
:104B40004362FFF751FF002804D129462046BDE803
:104B50007040CCE770BD73B58EB00E4600220EA932
:104B60006846FFF713FA04001ED14FF4007001F0FD
:104B700085F8050009D00AA8CDE9060568460E9912
:104B8000FFF755F9040003D00BE0112010B070BD01
:104B9000059828B12EB131466846FEF79EFF00E029
:104BA0000624284601F06CF82046EFE72DE9F74F80
:104BB00014468A46002269462046FFF7E7F9256831
:104BC0005FEA00084FD1AF692869B91E884202D850
:104BD000CAF8000047E095F800900024B9F1010FF1
:104BE00001D06E6A16E0022631462846FEF75CFBCD
:104BF000411C03D0012803D028B105E0012000E0CA
:104C00000220804628E0641CA869761C8642EBD30B
:104C100022E059B93146761C2846FEF7C8FA5FEA09
:104C2000000819D105F134004FF40071B9F1020FF9
:104C300007D00278D0F8013042EA0322120106D0F0
:104C400006E0028802B9641C801C891E02E0641C14
:104C5000001D091F7F1EDCD12C61687940F0010026
:104C60006871CAF800404046BDE8FE8F70B5044642
:104C7000FFF7B5FA05003DD1E07918B105462800E7
:104C800005D037E0A079800701D4072532E0D4E9C8
:104C9000020181422ED9E060A17941F02001A17189
:104CA00050B161692068FEF7FFFA0646401C0BD040
:104CB000012E0BD065B11CE021692068FEF7CCFB0A
:104CC00005460020206113E0012512E0022510E0D6
:104CD00020688169B1420FD96FF070426169FEF7B7
:104CE00041FB050005D131462068FEF7B5FB0546BE
:104CF00015B1E571284670BDA0794006FAD5206847
:104D0000012304F124014078A269FEF7CBF90028C1
:104D1000DAD1A07920F04000A071EBE771B597B02F
:104D2000012217A96846FFF731F9040054D14FF466
:104D3000007000F0A3FF060009D014A8CDE9060614
:104D400068461799FFF773F8040003D041E011207B
:104D500018B070BD0698C07A800606D4059C24B1B0
:104D6000E07AC00703D0072433E0062431E021466F
:104D7000009800F013FF05001BD0E07AC00618D59C
:104D800000984069A842EED0282269460AA800F09F
:104D9000EEFE02210AA80C95FEF7DCFB040018D1F8
:104DA00000210AA8FEF73AFD0400DCD0042C00D054
:104DB0007CB96846FEF761FE04000AD12DB1294690
:104DC0000098FEF749FB040003D10098FEF708FAAB
:104DD0000446304600F054FF2046B9E72DE9F14F74
:104DE00090B0FEF782F90646012210A96846FFF747
:104DF000CDF804007ED14FF4007000F03FFF5FEA71
:104E000000090BD00DA8CDE9060968461099FFF7F7
:104E10000EF8040006D0042C06D0A0E0112011B03A
:104E2000BDE8F08F08249AE00698C07A800601D584
:104E3000062494E000210098FEF73EFB5FEA00089C
:104E40004FF0000403D0B8F1010F02D002E00724B4
:104E500000E00224B8F1FF3F01D014B165E0012465
:104E600063E00098FEF77AF904005ED141460098AD
:104E7000FEF70EFA009D074634354FF4007200210C
:104E8000284600F07CFE0B222021284600F077FE09
:104E90002E242C701020E872F0B20C90A875C6F386
:104EA00007200B90E875C6F307400A9028764FEA72
:104EB000166B85F819B04146284600F078FE05F1DA
:104EC000200020222946064600F051FE85F82140A8
:104ED000009802990078032804D10098806A8842DB
:104EE00000D10021304600F062FE00984FF0010A28
:104EF000867813E036E00098076300997F1C81F8FC
:104F000004A00098FEF72AF904000ED14FF40072B5
:104F10000021284600F033FE761EF6B2002EEAD1BC
:104F20006846FEF7F7FC040004D041460098FEF7FF
:104F300093FA14E005981021C1720C9981750B99B0
:104F4000C1750A99017680F819B0414600F02FFE2C
:104F5000009981F804A00098FEF742F904464846FB
:104F600000F08EFE20465AE7F7B58EB017460E4683
:104F700001220EA96846FFF709F8040029D14FF471
:104F8000007000F07BFE05000CD00AA8CDE90605F4
:104F900068460E99FEF74BFF0446284600F070FE67
:104FA0001CB116E0112011B0F0BD0698C07A800641
:104FB00011D4059878B107F02701C27A0E408A43D0
:104FC0001643C6720099012008710098FEF708F98F
:104FD00004462046E7E70624FBE773B5A0B00122AC
:104FE00020A902A8FEF7D2FF04007DD102980C9000
:104FF0004FF4007000F042FE050009D01CA8CDE976
:10500000080502A82099FEF712FF040003D06DE006
:10501000112022B070BD0898C07A800601D5062400
:1050200064E00798C0B100F10B01152216A800F04A
:105030009EFD282202A90CA800F099FD21A8FEF7E8
:1050400035FF00280ADB0CA82199FEF7F0FE0400CA
:1050500006D0042C06D049E0042447E00B2445E0A8
:10506000082443E00CA8FEF755FC04003ED1119C37
:1050700013220DF15A0104F10D0000F078FD9DF8A6
:105080005800012640F02000E07202980671E07A94
:10509000C00620D50E99049888421CD0214602985B
:1050A00000F07CFD01460298FEF7F2F8010008D0FE
:1050B0000298FEF77CF80400029800F1540002D038
:1050C00014E0022412E041782E2904D10E9900F058
:1050D0006EFD0298067102A8FEF7CFFC040005D110
:1050E0000298FEF77DF800E003E00446284600F051
:1050F000C7FD20468DE773B58EB00D4601220EA97F
:105100006846FEF743FF04002BD14FF4007000F017
:10511000B5FD06000CD00AA8CDE9060668460E9932
:10512000FEF785FE0446304600F0AAFD14B118E0F3
:1051300011202BE50698C07A800614D4059890B10A
:10514000A9798175E988090AC17529790176A98843
:10515000090A41760099012008710098FEF740F88D
:105160000446204612E50624FBE7F7B58AB0174649
:105170000D4600220AA96846FEF708FF040036D152
:10518000FDB10026314668460296FEF7E3F90400B9
:105190002DD101216846FEF741FB04000BD10B2203
:1051A0002846059900F0E3FC0B202E5418B1401E50
:1051B000295C2029F9D0042C01D014B117E02E70FD
:1051C0000024A7B10098016AFDF7F1FF04000ED199
:1051D0000098007803280DD0272000F13401009AB0
:1051E00035301044515C006841EA002038600DB051
:1051F0002046F0BD4320F0E72DE9F1438EB00122B7
:105200000EA96846FEF7C2FE00287FD181468DF8C0
:1052100028904D460E9800E06D1C415D0029FBD1A1
:1052200000E06D1E9DB3411911F8011C2029F8D032
:10523000002427460DF128080E980121C05D7F1C2F
:1052400000F020FD00F038FD002100F01BFD0600FD
:105250005BD00146FDA000F099FCE0BBFF2E01D918
:105260000A2000E00B20A0424FD9FF2E03D9310ABB
:1052700008F80410641C404608F80460641CAF423F
:10528000DAD320210B2C03D20155641CFAE703E08A
:105290009DF82800E52838D000216846CDF8089010
:1052A000FEF758F9002831D101216846FEF7B6FA19
:1052B000012470B3042829D19DF82810002000296A
:1052C00024D001216846FEF7F5F900281ED12022DE
:1052D0000021059801E018E018E000F050FC0B22D6
:1052E0000AA9059800F043FC05990820C872FDF74B
:1052F000FCFE05998875059A010AD175059A010C7D
:10530000000E11760599487610E006200FB0BDE832
:10531000F083FFE79DF8280028B10B220AA9059821
:1053200000F025FCE3E70599E5200870009804717A
:105330000098FDF755FFE9E72DE9F74F86B01746CE
:105340000798012802D9132009B069E506A8FEF7DD
:10535000ADFD002801DA0B20F6E7C04951F82040E6
:105360004CB100212170C0B20390FDF774FEC1075B
:1053700003D00320E8E70C20E6E7400701D50A2028
:10538000E2E704AA01210398FDF79FFE00287CD1E3
:105390000498802879D3079909B1002100E03F21C2
:1053A0008946A0EB0901781E0742049100D17FB91C
:1053B0004FF4FA60B1FBF0F20020A94B00E0401C72
:1053C00033F810509542FAD8A54A163232F81070C8
:1053D000B7F5007F00D37F0A87B1802F00D98027DF
:1053E000B1FBF7F0012640F6F672904200D3022698
:1053F0004FF6F672904203D3032620E00127EFE731
:10540000032E1CD0012E23D04000001D00F2FF10FF
:105410004FEA502801252020834609EB050A0AEBB4
:1054200008005844C2190090A2EB0900884246D8EF
:1054300001AA03210398FDF748FEA0B90EE040F24F
:10544000072202EB80004FEA502820250020E3E7E6
:1054500000EB4000401C4008C01CD7E7019810B189
:10546000B0F5004F01D90120019000990144401E80
:10547000491E81430098081A0190032E12D08044DF
:105480000498421BA2EB080200E0DEE0A2EB0B0155
:10549000B1FBF7F10091022E07D0032E0AD0012EA6
:1054A00011D015E005448244EAE740F6F6729142D5
:1054B00005D30DE008464FF6F671884201D20E2062
:1054C00042E70C200AE0B0F5803F06D2012005E05B
:1054D000B0F5803F01D2042000E006200590079837
:1054E00008B1F0203BE004F134004FF400720021D9
:1054F000029000F044FB04F5F970012141708170C5
:105500000022C27005990171FE214171049B09EBD3
:10551000030143F6C163B1FBF3F13F2343EA910C6E
:10552000019180F806C0C171037242728272C27228
:10553000049901730A0A42730A0C8273090EC1733B
:10554000552084F83202AA2084F83302DDE90210E3
:1055500001230022FDF7A6FD002876D1F82034347F
:1055600002904FF400720021204600F008FB0B224D
:105570003CA1204600F0FBFA0021E17202202073DA
:105580006773A573280AE07301202074032E0BD0E3
:1055900040026074000AA0740498B0F5803F05D200
:1055A000E074000A20750CE00020F2E784F8200087
:1055B000020A84F82120020C84F82220000E84F8CC
:1055C0002300029860753F20207600206076FF213E
:1055D000A176E07684F81C904FEA192060774FEAB4
:1055E0001940A0774FEA1960E077FDF77EFD802132
:1055F00029220190032E45D084F82700030A84F85D
:105600002830030C84F82930000E84F82A0084F82E
:1056100016804FEA1820E07584F8241084F82620BC
:10562000132213A104F12B0000F0A1FA552084F8F5
:10563000FE01AA2084F8FF0101234A46214603986F
:10564000FDF730FD002888D152E0D7E0222A2B2C2C
:105650002E3A3B3C3D3E3F5B5D7C7F0028030020B3
:10566000D4810008EBFE904D53444F53352E30004B
:105670004E4F204E414D45202020204641542020B1
:105680002020200084F84300030A84F84430030CEF
:1056900084F84530000E84F8460084F824804FEAF0
:1056A000182084F825004FEA184084F826004FEAB5
:1056B000186084F82700022084F82C00002084F869
:1056C0002D0084F82E0084F82F00012384F8303058
:1056D00084F83100062384F8323084F8330084F8EB
:1056E000401084F842201322FDA104F147009BE7FB
:1056F000032E06D1012309F1060221460398FDF786
:10570000D1FC55464FF0000A4FF4007200212046AC
:1057100000F035FA02980190032E12D0012E0ED01F
:105720006FF0FF010143019121700198000A607040
:105730000198000CA0700198000EE07018E0ED498F
:10574000F0E760F0FF00019020700198000A60709F
:105750000198000CA0700198000EE070FF202071ED
:105760006071A071E07120726072A0720F20E0720F
:105770002A466D1C012321460398FDF793FCE8BBE4
:105780004FF400720021204600F0F9F9012009E0F1
:105790002A466D1C012321460398FDF783FC68BB54
:1057A0000198401C01904045F2D30AF101005FEAE4
:1057B000000AA9D0032E00D05F462A466D1C0123A3
:1057C00021460398FDF76EFCC0B97F1EF5D1032E6C
:1057D0003CD15220207060706122A2704120E070A4
:1057E000722184F8E41184F8E51184F8E60184F864
:1057F000E7210098401E84F8E80100E02EE0010A4D
:1058000084F8E911010C84F8EA11000E84F8EB0128
:10581000022084F8EC01002084F8ED0184F8EE0108
:1058200084F8EF01552084F8FE01AA2084F8FF01D6
:10583000012309F1010221460398FDF733FC0123FE
:1058400009F1070221460398FDF72CFC00221146BE
:105850000398FDF73AFC00283FF47EAD012073E584
:105860002DE9FC4100259046074604464E1E11E0F6
:1058700001AB012269464046FEF793FD01980128DD
:105880000AD19DF800000D2804D06D1C04F8010B0E
:105890000A2801D0B542EBDB0020207015B1384654
:1058A000BDE8FC810020FBE7F8B50E4604460A2956
:1058B00002D10D21FFF7F8FF6568002D16DB601996
:1058C0006D1C06733D2D0DDB6B462A4604F10C0161
:1058D0002068FEF703FE0098A84201D1002501E0F0
:1058E0004FF0FF356560A068401CA060F8BD00B5B2
:1058F00095B00291002103910491014602A8FFF79F
:10590000D3FF039800280DDB024601AB05A90298DE
:10591000FEF7E4FD30B901990398884202D104985A
:1059200015B000BD4FF0FF30FAE710B596B0044651
:105930000020CDE90210049003E002A8641CFFF7E8
:10594000B3FF21780029F8D1039800280DDB024627
:1059500001AB05A90298FEF7C1FD30B90199039882
:10596000884202D1049816B010BD4FF0FF30FAE71C
:105970000FB42DE9F0479AB024AE029000200390B6
:105980000DF154090490239810F8011B239000296D
:1059900073D0252903D002A8FFF786FFF3E700257F
:1059A00010F8011B2F462390302902D02D2902D058
:1059B0000FE0012500E0022510F8011B239008E00C
:1059C00007EB870001EB40072398303F10F8011BDD
:1059D0002390A1F130000928F2D96C2901D04C297B
:1059E00005D1239845F0040510F8011B23900029E8
:1059F00043D0A1F161000A46192801D8203AD2B259
:105A00004F2A40D006DC422A3BD0432A36D0442AD3
:105A1000C1D13AE0532A08D0552A36D0582ABAD1F3
:105A2000102301CE442A32D036E056F8048B0024ED
:105A300000E0641C18F804000028FAD1A80704D577
:105A40000DE0202102A8FFF72FFF2046641CB8427A
:105A5000F7D304E008F1010802A8FFF725FF98F842
:105A600000100029F6D103E0202102A8FFF71CFF57
:105A70002046641CB84286D2F6E761E016F8041BA3
:105A800089E70223CDE70823CBE70A23C9E70028EB
:105A900002DA404245F008050024CC46B0FBF3F2A0
:105AA00003FB1202B0FBF3F0D2B2092A05D9782920
:105AB00022D04FF007084244D2B230320CF8042012
:105AC000641C08B1102CE9D3280703D52D2009F850
:105AD0000400641CA046E80711D0302010E000004C
