:020000040800F2
:10000000D00A00204102000865280008672800087F
:10001000692800086B2800086D280008000000000F
:100020000000000000000000000000006F28000831
:1000300071280008000000007328000877280008D5
:100040005B0200085B0200085B0200085B0200081C
:100050005B0200085B020008D3190008EB190008D6
:10006000031A00081B1A0008331A00085B02000874
:100070005B0200085B0200085B0200085B020008EC
:100080005B0200085B0200085B0200085B020008DC
:100090005B0200085B0200085B0200084B1A0008C4
:1000A0005B0200085B0200085B0200085B020008BC
:1000B0005B0200085B0200085B0200085B020008AC
:1000C0005B0200085B0200085B0200085B0200089C
:1000D0005B020008B3150008C5150008DD1500080F
:1000E0009D1A00085B0200085B0200085B02000822
:1000F0005B0200085B0200085B0200085B0200086C
:100100005B0200085B0200085B0200085B0200085B
:10011000F51500080D1600085B0200085B020008D8
:100120005B0200085B0200085B0200085B0200083B
:100130005B0200085B0200085B0200085B0200082B
:100140005B0200085B0200085B0200085B0200081B
:100150005B0200085B0200085B0200082116000831
:100160005B0200085B0200085B0200085B020008FB
:100170005B0200085B0200085B0200085B020008EB
:100180005B0200085B02000800F002F800F048F88B
:100190000AA090E8000C82448344AAF10107DA45E2
:1001A00001D100F03DF8AFF2090EBAE80F0013F0EC
:1001B000010F18BFFB1A43F0010318478C2F0000F2
:1001C000AC2F0000103A24BF78C878C1FAD8520783
:1001D00024BF30C830C144BF04680C6070470000C1
:1001E0000023002400250026103A28BF78C1FBD840
:1001F000520728BF30C148BF0B607047642902F026
:100200008F84782902F0C884002070471FB502F05F
:1002100060FF9DE8030002F003FE1FBD10B510BD96
:1002200002F0D2FE1146FFF7F1FF01F055FF02F098
:10023000F0FE03B4FFF7F2FF03BC02F01DFF000065
:100240000948804709480047FEE7FEE7FEE7FEE76A
:10025000FEE7FEE7FEE7FEE7FEE7FEE704480549A6
:10026000054A064B70470000232900088901000851
:10027000D0020020D00A0020D0060020D0060020A6
:100280002849084328490860704730B50F23C278D1
:1002900001780125FAB1244A126801F1E02102F443
:1002A000E062C2F5E062C2F30722C2F10404D34067
:1002B0004278A24084781C401443220181F8002433
:1002C000007800F01F018D404009800000F1E0201F
:1002D000C0F8005130BD01F01F0085404809800082
:1002E00000F1E020C0F8805130BD104A11400143B8
:1002F0000D48001F016070470B4A121D002911684C
:1003000001D0014300E08143116070474FF0E021CC
:100310000428086903D020F004000861704740F009
:100320000400FAE70000FA050CED00E080FFFF1F73
:10033000F848016841F001010160F64A00210832E5
:1003400011600268F44B1A400260031DF34A1A6000
:10035000F04BF34A84331A60F04A103A1B1D1A60BE
:10036000026822F480220260EA480C300160181D05
:1003700001607047E7490022891C0A7008707047C5
:1003800002460020510901290CD002290CD0E14974
:100390007431096802F01F02012393400B4200D020
:1003A00001207047DB49F4E7DA497031F1E718B50D
:1003B00000204FF4A04400903120FFF7E1FF0099A6
:1003C000491C0091A14201D00028F5D03120FFF74F
:1003D000D7FF002800D0012018BDCE4A116821F0B7
:1003E000F80141EAC00010607047CE4908607047CC
:1003F000C849002270310A700A70012802D004280E
:1004000001D1052008707047C7490860704741EA6C
:1004100082115A0810B5C54B029C03EB02421143EE
:10042000014341EA0460BB49091D086010BDBD4994
:1004300008667047800140EA0170B649843108605F
:100440007047B84988667047800140EA0160B14949
:1004500040EA0270883108607047B2490867704707
:10046000B049C8647047AB4B08331A68084322F0A0
:10047000EC62104318607047A64B08331A680843B3
:1004800022F07842104318607047A24A083211687F
:1004900021F003010143116070479E480830006855
:1004A00000F00C0070479B4A0832116821F0F001FF
:1004B000014311607047974A0832116821F4E051F6
:1004C000014311607047934A0832116821F460417A
:1004D00041EAC0001060704770B58E4B0833196850
:1004E000934C11F00C0104D06610042903D00829A4
:1004F00003D004601BE0066019E0864A121D1168F3
:10050000C1F38055116801F03F0115B1B6FBF1F15F
:1005100001E0B4FBF1F114681268C4F3881461437C
:10052000C2F30142521C5200B1FBF2F101601968A2
:100530000F2202EA11117F4A545C0168E1404160D8
:100540001C68072505EA9424145D21FA04F48460EC
:100550001B6805EA5333D25CD140C16070BDC0F363
:100560000121032908D16B4B08331968724A21F421
:10057000F81102400A431A60664970310A68C0F3F4
:100580000B0002430A6070476749443908607047AE
:1005900065494039086070476249C1F85C0170479D
:1005A0005C4A8C32116821F440110143116070479C
:1005B000584A8C32116821F44001014311607047A0
:1005C000544A8C321168401E21F01F010143116012
:1005D0007047504A8C3211686FF0FF0321F4F851D4
:1005E00003EB00200843106070474A4A8C321168C0
:1005F00021F440310143116070475049C1F8E001D6
:100600007047444A30320029116801D0014300E0AC
:100610008143116070473F4A34320029116801D08C
:10062000014300E08143116070473A4A38320029A3
:10063000116801D0014300E0814311607047354AE1
:1006400040320029116801D0014300E0814311606C
:100650007047304A44320029116801D0014300E05C
:100660008143116070472B4A10320029116801D074
:10067000014300E0814311607047264A143200298B
:10068000116801D0014300E0814311607047214AA5
:1006900018320029116801D0014300E08143116044
:1006A00070471C4A20320029116801D0014300E044
:1006B000814311607047174A24320029116801D024
:1006C000014300E0814311607047124A5032002913
:1006D000116801D0014300E08143116070470D4A69
:1006E00054320029116801D0014300E081431160B8
:1006F0007047084A58320029116801D0014300E0D0
:10070000814311607047034A60320029116817D095
:10071000014316E000380240FFFFF6EA10300024E3
:100720000030002000004742800E47420000FFFFDB
:100730000024F40000000020FFFCFF0F00104742DF
:10074000814311607047194A0029116801D00143A3
:1007500000E081431160704714490C31012808689A
:1007600003D020F008000860704740F00800FAE766
:100770000E4A573A0029117801D0014300E0814325
:100780001170704709481030016841F080710160B4
:1007900070470146054A0020583A12680A4200D0C4
:1007A000012070470149563908707047643802408B
:1007B000774910B5884206D101210846FFF753FF5B
:1007C000002101205BE07349884206D1012102200B
:1007D000FFF749FF0021022051E06F49884206D10E
:1007E00001210420FFF73FFF0021042047E06B496F
:1007F000884206D101210820FFF735FF002108209B
:100800003DE06749884206D101211020FFF72BFF08
:100810000021102033E06349884206D101212020C5
:10082000FFF721FF0021202029E05F49884206D1FF
:1008300001214020FFF717FF002140201FE05B4906
:10084000884206D101218020FFF70DFF0021802082
:1008500015E05749884202D1012184150AE0554923
:10086000884202D10121441504E0534988420AD14B
:10087000012104152046FFF7F6FE00212046BDE8C1
:100880001040FFF7F0BE10BDF0B5002201274FF079
:10089000030C0B6807FA02F52B40AB422CD106681B
:1008A00053000CFA03F4A64306600E79D0F800E07A
:1008B0009E4046EA0E0606600E79012E01D0022EF9
:1008C00012D18668A64386604E79D0F808E09E4033
:1008D00046EA0E0686604668AE43466045688E79F5
:1008E0009640B6B235434560C568A543C560CC792E
:1008F0009C40C3681C43C460521C102AC9D3F0BD7D
:100900004FF6FF7101600021017141718171C17168
:10091000704708B541F480320092C261C16100990C
:10092000C161C169C069009008BD0246002012691A
:100930000A4200D001207047006980B27047024629
:10094000002052690A4200D001207047406980B2FD
:10095000704701837047418370470AB10183704734
:10096000418370474161704742694A404261704724
:100970004B07DB0E9A40C90810B500EB8100016AF5
:100980000F249C40A1430162016A1143016210BD22
:10099000000002400004024000080240000C024037
:1009A000001002400014024000180240001C0240E7
:1009B000002002400024024000280240CD4910B52A
:1009C000884206D101211020FFF775FE002110207A
:1009D00020E0C949884202D101214C0429E0C749DD
:1009E000884202D101218C0423E0C549884202D10A
:1009F0000121CC041DE0C349884202D101210C052C
:100A000017E0C149884209D101212020FFF753FE98
:100A100000212020BDE81040FFF74DBEBB498842B1
:100A200002D101218C0704E0B94988420AD1012191
:100A300044052046FFF735FE2046BDE81040002162
:100A4000FFF72FBE10BD7FB50446008A0D46C9884A
:100A500020F4405001432182A08941F20C61884377
:100A6000A9882A8911436A8902431143A181A08A76
:100A700020F44071A8890843A0826846FFF72CFD46
:100A80009C48844202D0A048844201D1039800E0EF
:100A90000298A189090400EBC00101EB001029684C
:100AA00001D5490000E08900B0FBF1F06422B0FB01
:100AB000F2F109010B096FF018056B4300EB83009D
:100AC000A3891D044FF0320306D503EBC000B0FB31
:100AD000F2F000F0070005E003EB0010B0FBF2F0CD
:100AE00000F00F00084320817FBD4FF416510160D4
:100AF00000218180C18001810C2242818181704767
:100B000010B5028A4C8822F470630A8822438C88CC
:100B1000C9880C4322431A43028210BD0021018080
:100B200041808180C18070470029818902D041F4D1
:100B3000005101E021F4005181817047028B02F4E1
:100B40007F420283028B0A43028370470029818916
:100B500002D041F4004101E0C1F30E0181817047F0
:100B60000029818A02D041F4006101E021F4006192
:100B700081827047C1F30801818070478088C0F38B
:100B800008007047028A22F00F020282028A0A439A
:100B9000028270470029818902D041F0020101E000
:100BA00021F0020181817047828922F400628281F2
:100BB00082890A4382817047028A22F020020282DF
:100BC000028A0A43028270470029018A02D041F456
:100BD000804101E021F4804101827047818941F028
:100BE0000101818170470029818A02D041F008010A
:100BF00001E021F0080181827047028BD2B20283AA
:100C0000028B42EA0121018370470029818A02D0C8
:100C100041F0200101E021F020018182704700298C
:100C2000818A02D041F0100101E021F0100181829F
:100C30007047828A22F004028282828A0A43828278
:100C400070470029818A02D041F0020101E021F0C1
:100C5000020181827047002A828A01D00A4300E0A3
:100C60008A438282704710B5C1F3421301F01F041A
:100C70000121A140012B07D0022B07D01430002AFC
:100C8000026805D00A4304E00C30F8E71030F6E7BC
:100C90008A43026010BD0246002012880A4200D03A
:100CA00001207047C9430180704770B501F01F05EE
:100CB00001260024C1F3421306FA05F2012B0FD0DE
:100CC000022B0FD0838A4FEA11210088134206FAC3
:100CD00001F600EA060001D000B10124204670BDF3
:100CE0008389F0E7038AEEE70A0A01219140C943AC
:100CF000018070470010014000440040004800405F
:100D0000004C0040005000400014014000780040BA
:100D1000007C0040A3490844C0F38F2070472DE9B0
:100D2000F04F9A46DDE909B889460346FFF7F2FF1E
:100D3000C5B200204FF0030E0121814011EA090FD6
:100D400028D0994E36F815400C4326F81540DF6838
:100D500044000EFA04F6B7430BFA04FC47EA0C070A
:100D6000DF601F6802FA04FCB74347EA0C071F6004
:100D7000012A01D0022A0DD15F6889B28F430AFA95
:100D800000F189B20F435F60996808FA04F4B14337
:100D900021439960401CC0B21028CDD3BDE8F08F2C
:100DA00000B5FFF7B7FF0121814080480268114379
:100DB000016000BDFCB51646DDE907C50C0007461D
:100DC00008D0FFF7EDFFCDE900C532462146384691
:100DD000FFF7A5FFFCBD2DE9FC4F9946DDE90BB7F8
:100DE00092460D00064622D0FFF7DAFF00220121CD
:100DF0004FF00F0C01FA02F028420DD0D00806EB9C
:100E00008003186A5407E40E0CFA04F820EA08007C
:100E100007FA04F420431862521C102AEAD3CDE9E1
:100E2000009B5346022229463046FFF778FFBDE873
:100E3000FC8FF0B50E460546FFF76CFF00225A49BD
:100E4000C4B24FF0010C03270CFA02F333420CD06A
:100E500028684FEA420E07FA0EFE40EA0E002860AC
:100E600031F81400984321F81400521CD2B2102A11
:100E7000EAD3F0BDF0B500220125032605FA02F3FE
:100E80000B4205D00468570006FA07F39C43046040
:100E9000521CD2B2102AF1D3F0BDF0B500220127C6
:100EA000032607FA02F33C460B4208D005685300BC
:100EB00006FA03FC25EA0C059C4025430560521CFC
:100EC000D2B2102AEDD3F0BDF0B5002201250326E1
:100ED00005FA02F30B4205D00468570006FA07F33F
:100EE0001C430460521CD2B2102AF1D3F0BDF0B5FD
:100EF000002201260324022706FA02F30B4209D03E
:100F00000568530004FA03FC25EA0C0507FA03F30D
:100F10001D430560521CD2B2102AEDD3F0BDF0B5CE
:100F200000230127032507FA03F40C4209D0C66801
:100F30005C0005FA04FC26EA0C0602FA04F42643D7
:100F4000C6605B1CDBB2102BEDD3F0BD41F48032E8
:100F5000C261C161C261C169C0697047002102E01C
:100F6000491C89B240080128FAD80846704700B5E4
:100F7000FFF7D0FE012181400C4802688A430260DD
:100F800000BD00B5FFF7C6FE074931F8100000BDEF
:100F900000B5FFF7BFFE044931F81000C04380B22E
:100FA00000BD00000000FEBF0801002030380240F4
:100FB000FE4A0146904200D10020FD4A914200D1F4
:100FC0000120FC4A914200D10220FB4A914200D10B
:100FD0000420FA4A914200D10520F94A914200D1F9
:100FE0000620704770471CB50822032140B1012834
:100FF0000DD0032803D10821F148FFF7F3FF1CBDF2
:10100000CDE9001201230022C021EE4806E0CDE91F
:101010000012012300224FF48441EB48FFF7DBFE6E
:101020001CBD7CB530B1032803D10821E348FFF78C
:10103000D9FF7CBD08250324012300221903E148C0
:10104000CDE90045FFF7C7FE012300220421DF4858
:10105000CDE90045FFF7BFFE7CBD1CB5082203218A
:1010600040B101280DD0032803D10821D248FFF751
:10107000B9FF1CBDCDE90012012300220321D44891
:1010800006E0CDE90012012300224FF44061CD4873
:10109000FFF7A1FE1CBD1CB507220323990250B126
:1010A00001280ED0022812D0032803D10721C148FD
:1010B000FFF798FF1CBDCDE9003201230022C5488F
:1010C0000CE0CDE9003201230022BE4806E0CDE964
:1010D0000032012300224FF44071BC48FFF77BFE31
:1010E0001CBD1CB50722032140B101280DD00328E7
:1010F00003D10721AE48FFF775FF1CBDCDE90012F3
:10110000012300220C21B24805E0CDE900120123A1
:1011100000226021AD48FFF75EFE1CBD1CB5072212
:10112000032140B101280ED0032803D107219F4895
:10113000FFF758FF1CBDCDE90012012300224FF438
:10114000C061A34805E0CDE9001201230022C021BF
:10115000A048FFF740FE1CBD944A0146904200D1D2
:101160009D48934A914201D19B481030914A914247
:1011700001D199482030904A914201D196483030AF
:101180008E4A914201D1944840308D4A914201D11A
:101190009148503070472DE9FF4F87B09A46DDE9FE
:1011A00014B913460446DDF85C80FFF7D5FF054609
:1011B0007E488A4F0193844209D1386840F010007C
:1011C00038600898FFF7AAFF25208DF80000834EAD
:1011D0007748361F844209D1306840F400303060CF
:1011E0000898FFF77EFF26208DF8000071488442A2
:1011F00009D1306840F4802030600898FFF74BFF39
:1012000027208DF800006C48844209D1306840F4F2
:10121000002030600898FFF720FF34208DF8000090
:101220006648844209D1306840F4801030600898E4
:10123000FFF7F7FE35208DF800006148844209D1A0
:10124000386840F0200038600898FFF7CCFE47204F
:101250008DF800002046FFF7B1FB01268DF80360F2
:1012600006208DF801002046FFF7A2FE8DF802004F
:101270006846FFF70AF81698ADF80A00ADF80EB008
:10128000ADF810A0ADF80C90ADF8088000202873E0
:1012900040F6FF700590411E059101D30846FAE71C
:1012A00001A92046FFF7CFFBA08940F02000A081D4
:1012B0002E73A08940F40050A0810BB0BDE8F08FE0
:1012C0002DE9FF410446394800250C26174688467B
:1012D000844206D1CDE90065029500230395FFF70E
:1012E0005AFF3348844208D1CDE9006502950023B6
:1012F0003A4641460395FFF74EFF2E48844208D1F7
:10130000CDE90065029500233A4641460395FFF773
:1013100042FF2948844208D1CDE9006502950023A7
:101320003A4641460395FFF736FF2448844208D1E8
:10133000CDE90065029500233A4641460395FFF743
:101340002AFF1F48844208D1CDE900650295002399
:101350003A4641460395FFF71EFFBDE8FF812DE9A0
:10136000FF470446114800250C261F469046894633
:10137000844205D1CDE9006502950395FFF70BFF87
:101380000B48844208D1CDE9006502953B464246B0
:1013900049460395FFF7FFFE0648844223D1CDE975
:1013A000006502953B464246494619E0001001405F
:1013B0000044004000480040004C00400050004005
:1013C000001401400008024000180240000C0240D6
:1013D0000000024000040240100000204438024097
:1013E0000395FFF7D8FE9448844208D1CDE9006503
:1013F00002953B46424649460395FFF7CCFE8F488F
:10140000844208D1CDE9006502953B4642464946F3
:101410000395FFF7C0FE8A48844208D1CDE90065F4
:1014200002953B46424649460395FFF7B4FEBDE8A8
:10143000FF8710B50023FFF78FFEC18819B9028915
:101440004489A2420DD0428983889A4201D1002268
:101450004281036892B29B56521C428109B1491ED7
:10146000C180D8B210BD10B50C46FFF775FEC38819
:1014700042890DE08188914200D100220168895C97
:10148000A14201D1012010BD521C5B1E92B29BB241
:10149000002BEFD1002010BDF0B516460F46844654
:1014A0000024FFF759FE0546C08840B1697B6046BD
:1014B000FFF7D9FF78B9E888A98888420BD00020C7
:1014C000F0BD6046FFF7B5FF3855697B884205D00F
:1014D000641CA4B200E0761EB442F2DB0021641C5E
:1014E000A0B23954F0BD00B5FFF736FEC18829B966
:1014F00001894089814201D1012000BD002000BD49
:1015000000B5FFF729FEC1888088814201D1012002
:1015100000BD002000BD00B5FFF71EFE0021C18008
:101520000181418100BD00B50B46FFF715FE4373F5
:1015300000BD10B50C460346FFF70EFE007B0028E9
:101540000BD007E019880906FCD59880641C188820
:101550000006FCD520780028F4D110BD70B51546E2
:101560000E460446FFF7F8FD007B00280DD000234F
:1015700009E020880006FCD5F05CA08020880006E9
:10158000FCD55B1C9BB2AB42F3D370BDC388828891
:1015900093420DD20389934201D100220281038933
:1015A0000268D1540189491C0181C188491CC1804C
:1015B000704724480188890603D58088C1B2224833
:1015C000E4E7704721480088800606D51F48001DC3
:1015D0000088C1B21C481030D8E770471C4810B5CD
:1015E0000088800605D51A48001D0088C0B201F0A9
:1015F0008AF810BD10480088800606D50E48001DE8
:101600000088C1B210483030C0E770470B480188ED
:10161000890604D58088C1B20B484030B6E77047D0
:10162000074810B50088800605D50548001D0088CC
:10163000C0B201F054F810BD004C00400050004012
:101640000014014000100140100000200044004040
:101650000048004070B55A484168491C41608168A3
:1016600011B18168491E8160AFF300800024554E9E
:1016700018E006EB8405686890B1017B81B182684F
:1016800072B1521E826069680AD148690969884747
:101690006868016881606868416809B90021017360
:1016A000641CE4B23078A042E3D870BD46480168BB
:1016B0004FF47A70B1FBF0F0401EB0F1807F12D28F
:1016C0004FF0E0225061414BF02083F8140D0020D0
:1016D0009061072010613E48B1FBF0F13848C160CD
:1016E000012101707047FEE735480078002805D0D9
:1016F0004FF0E020016941F00201016170474FF0B5
:10170000E020016921F00201016170472DE9F047F5
:101710002C4C0546DDF8209020781E46174688465A
:10172000052802D30020BDE8F087182001F066F9F3
:101730000028F8D00560C0E901850773C0E9046995
:10174000217804EB810148602178491C2170EAE787
:1017500070B51C4B00211A7806E003EB8104646825
:10176000844203D0491CC9B28A42F6D88A4218D0B2
:1017700003EB81004068EFF3108472B605E003EBE1
:101780008102491C9568C9B255601A78521E8A4276
:10179000F5DC1978491E197001F05FF9002C00D1B1
:1017A00062B670BD0021017370470121017370475B
:1017B00001688160704741607047016070470000B8
:1017C00070000020E0010020F40000200FE000E0A5
:1017D000C0C62D002DE9FE4F164683460C004FF083
:1017E000010A02D0601E014212D00025574607FAB6
:1017F00005F0204205D081B232465846FFF7EAFF95
:10180000B8BB6D1CEDB2102DF1D30020BDE8FE8FEA
:10181000DFF8F082D8F80000204234D108F1040942
:10182000D9F8000020422ED1B4F5807F37D012DCE9
:10183000102C32D008DC012C27D0022C27D0042C0D
:1018400027D0082C1FD126E0202C28D0402C26D0D1
:10185000802C18D123E0B4F5805F22D00ADCB4F5E7
:10186000007F1CD0B4F5806F1BD0B4F5006F0AD197
:1018700017E008E0B4F5005F13D0B4F5804F10D046
:10188000B4F5004F0DD00120C0E706250AE007257A
:1018900008E0082506E0092504E00A2502E01725EE
:1018A00000E02825012E51D0F6B300200021CDE91B
:1018B00000010B460A4621465846FFF77BFA2046B0
:1018C000FFF74CFBC7B25846FFF724FAC2B28E4866
:1018D000016841F4804101608C4827F0030108440D
:1018E000D0F80838B907090F4FF00F0C0CFA01FCBB
:1018F00023EA0C03C0F80838D0F808388A401343AC
:10190000C0F80838D8F80010A143C8F80010D9F87A
:101910000020A243C9F80020D8F800102143C8F8DD
:10192000001078480C3000E012E00168A14301602B
:10193000011F0A68A2430A60012E0BD016B102688B
:101940002243026008682043086006E00120ADE7FA
:101950000220ABE70168214301608DF808500A209E
:101960008DF809008DF80A708DF80BA002A8FEF71B
:101970008CFC4AE763490A6882430A60091D0A68C9
:1019800082430A605F490C310A6882430A60091F7A
:101990000A6882430A60002070475A4801686FF362
:1019A0000F010160001D01686FF30F0101605548D0
:1019B0000C3001686FF30F010160001F01686FF3C5
:1019C0000F0101604F48143001686FF30F0101608F
:1019D00070474C4810B514300168C90704D0012184
:1019E0000160084600F0E9FD10BD464810B514300E
:1019F0000168890704D502210160084600F0DDFD79
:101A000010BD404810B514300168490704D50421C1
:101A10000160084600F0D1FD10BD3A4810B5143001
:101A20000168090704D508210160084600F0C5FDDA
:101A300010BD344810B514300168C90604D5102112
:101A40000160084600F0B9FD10BD10B52D4C1434EE
:101A50002068800603D52020206000F0AEFD2068BD
:101A6000400603D54020206000F0A7FD2068000656
:101A700003D58020206000F0A0FD2068C00504D5BB
:101A80004FF48070206000F098FD2068800504D538
:101A90004FF40070206000F090FD10BD10B5194C9F
:101AA00014342068400503D52015206000F085FD22
:101AB0002068000504D54FF40060206000F07DFD33
:101AC0002068C00404D54FF48050206000F075FDFC
:101AD0002068800404D54FF40050206000F06DFDB4
:101AE0002068400404D54FF48040206000F065FD7C
:101AF0002068000404D54FF40040206000F05DFD34
:101B000010BD0000003C014044380240003001405C
:101B100070B5B94C02074FF0800101D5218300E078
:101B2000618342074FF0400101D5218300E06183CA
:101B300082074FF0200101D5218300E06183C107B6
:101B40004FF0100001D0208300E060834FF48065E7
:101B50002583142000F0ECF86583BDE87040142064
:101B600000F0E6B810B5012000F0E8F8BDE810403C
:101B700040F6B83000F0DCB8A049087840F0040026
:101B8000087040F0080000F0D9B870B50D46064660
:101B9000FFF78CFD00F0E0F84AF6C87000F0C8F8D6
:101BA000964C0020012DE57026716071A071607067
:101BB00001D9082060700320FFF7AAFF41F29415B5
:101BC000284600F0B5F80320FFF7A2FF284600F0F2
:101BD000AFF80320FFF79CFF284600F0A9F8022089
:101BE000FFF796FF642000F0A3F8607840F0200033
:101BF00000F0A4F804202070FFF7BEFFFFF7B2FF4B
:101C00000220A070062000F099F82846BDE8704038
:101C100000F08EB808B57AA212680092774AD3789D
:101C20008B4200D80021507191711DF801100844B9
:101C3000C0B240F0800000F081F808BD70B51446D5
:101C4000FFF7E8FF6D4D16E068792979884207D3E0
:101C500000206871A979491CC9B2A971FFF7DAFFA0
:101C600020780A280BD00D280FD000F0B7F868793B
:101C7000401C6871641C20780028E5D170BDA879EB
:101C8000401CC1B2A971687901E0A9790020FFF771
:101C9000C1FFEFE75949087820F00400087040F0D0
:101CA000080000F04BB85549087840F00100087072
:101CB00040F0080000F042B85049087820F00100D8
:101CC000087040F0080000F039B84C49087840F03E
:101CD0000200087040F0080000F030B8474908786A
:101CE00020F00200087040F0080000F027B818202B
:101CF00000F024B81C2000F021B870B50D4600F0AB
:101D00000700402141EAC00000F018F80024285DD7
:101D100000F064F8641CE4B2082CF8D370BD10B570
:101D20001446FFF777FF2046BDE8104000F056B894
:101D3000344909684843401EFDD2704710B52E490A
:101D400004464FF4807048832009FFF7E1FE04F059
:101D50000F00BDE81040DBE62DE9FC410024012224
:101D6000254D160200942346314628460194FFF77C
:101D700021F8012297020094002339462846019455
:101D8000FFF718F80094002301221021284601943F
:101D9000FFF710F800940023012220212846019427
:101DA000FFF708F8009400230122402128460194FF
:101DB000FFF700F8009400230122802128460194B7
:101DC000FEF7F8FF6E836F831020688320206883FE
:101DD0004020688380206883BDE8FC8110B50649F7
:101DE00004464FF4807008832009FFF791FE04F049
:101DF0000F00BDE810408BE600100240800000207C
:101E0000004014547C00002070B52B4B002211467A
:101E10001C68A40004D51C68012244F080741C6076
:101E2000264B45F255541C600B2801D3072400E0D3
:101E300003245C6000B3012820D0022820D00328AE
:101E400020D0042820D0052820D0062820D007281C
:101E500020D040F2FF3408281FD040F2FF75092837
:101E60001DD040F6FF760A281BD00B2815D00C2871
:101E700015D00D2815D015E0052113E00A2111E039
:101E80000F210FE01F210DE03D210BE07B2109E038
:101E9000FF2107E040F2FF1104E0214602E029465D
:101EA00000E0314699604AF6AA2018604CF6CC4012
:101EB0001860104670BD00007438024000300040C9
:101EC0004FF40060FE4908807047FD494FF4806080
:101ED00008807047FB4904200880FB490020886186
:101EE0007047F84901200880F74900208861704751
:101EF000F3494FF40060891E08807047F0494FF4A1
:101F00008060891E08807047EE490120891E088084
:101F1000ED4988617047EB490420891E0880EA4931
:101F200002208861704770B50322E8A1E84800F0FC
:101F30000DFF0025E44C012618B92672A672256211
:101F4000A5620322E3A1E24800F000FF18B926725F
:101F5000E6722562E5620322DFA1DD4800F0F6FEAD
:101F600008B9A672A5620322D8A1D94800F0EEFEF6
:101F700008B9E672E5620322D8A1D54800F0E6FE72
:101F800008B926736562207A08B1FFF7BDFF207B90
:101F900008B1FFF7C0FF607A08B1FFF7B5FFC84A84
:101FA000A07A921E18B111151180A16AA163E17A7D
:101FB00011B14FF400631380227AE3791A43637AF4
:101FC0001A4304D0226A02EBD27252102263227B9F
:101FD000A3791A4304D0626A02EBD2725210626390
:101FE00008B1A06AA063002901D0E06AE06370BD77
:101FF00070B505460024B44E06E00A2000F0A5FBAB
:10200000F078012802D0641CAC42F6D970BD70B5DE
:10201000AD4D002406465835304655F8241000F0E2
:1020200083FE08B1012070BD641C052CF4DB002088
:1020300070BD10B5A24C01211A3C2046FEF775FC7C
:1020400002212046FEF771FC10212046FEF76DFCB0
:10205000A34C20212046FEF768FC40212046FEF7D5
:1020600064FC80212046FEF760FCA1152046FEF7A7
:102070005CFCA1149B48FEF758FC9349062048736A
:1020800010BD10B5984C2046FFF72DFA8E4920461A
:10209000BDE810401131FFF74CBA8B480121417166
:1020A000017A427A1143C279114302D0016A491C74
:1020B0000162017B8279114302D0416A491C41626D
:1020C000817A11B1816A491C8162C17A002902D0EA
:1020D000C16A491CC16270479EB000F022FCFFF744
:1020E000E5FA0B20FFF790FE804800260660744D4D
:1020F00000961A3D334632464FF400412846019679
:10210000FEF758FE002300961A4620212846019625
:10211000FEF750FE002300961A46402128460196FD
:10212000FEF748FE002300961A46802128460196B5
:10213000FEF740FE6B4F002201213846FFF74AFBB5
:10214000DFF8AC9118B96BA14846FFF7F2F900220D
:1021500008213846FFF73EFB18B96DA14846FFF746
:10216000E8F9002210213846FFF734FB18B96EA1B8
:102170004846FFF7DEF94FF4807A0122514638468F
:10218000FFF728FB18B96EA14846FFF7D2F90122E4
:1021900040213846FFF71EFB18B96FA14846FFF7EC
:1021A000C8F94FF0010800234446CDF800801A46D4
:1021B00041462846CDF80480FEF7FCFD4048002348
:1021C00000941A4602211A380194FEF7F3FD3C48A8
:1021D000002300941A4610211A380194FEF7EAFDF4
:1021E000002300941A4620213D480194FEF7E2FDA9
:1021F000002300941A46402139480194FEF7DAFD85
:10220000002300941A46802135480194FEF7D2FD40
:10221000002300941A46514631480194FEF7CAFD46
:10222000002300941A464FF4805138460194FEF77B
:10223000C1FD0320CDE900602248012200231146A0
:102240001A38FEF7B7FD002003210346CDE900014F
:102250001C48012204211A38FEF7ACFD002003219E
:102260000346CDE900011648012291021A38FEF713
:10227000A1FD002003210346CDE900014FF4006ACF
:102280000F480122554651461A38FEF793FD4FF488
:10229000E13200211448FFF713F84FF4165B5A4659
:1022A00002211348FFF70CF85A4600213048FFF787
:1022B00007F80320CDE9004000230122294659E018
:1022C0001A0C02401A0802408800002052313100E6
:1022D0002A02002052323100523132005233310092
:1022E000000402400000024000140140740000207D
:1022F000004800406B686F692074616F206E6761F1
:10230000742044464D465F424954340A00000000A0
:102310006B686F692074616F206E6761742057313C
:102320005F44300A000000006B686F692074616FC1
:10233000206E6761742057315F44310A000000004D
:102340006B686F692074616F206E6761742057320B
:102350005F44310A000000006B686F692074616F90
:10236000206E6761742057325F44300A000000001D
:10237000001001403846FEF71DFD3D830020AFF2FE
:10238000E5230122009011464FF4FA70FFF7BEF9E1
:10239000F34F38640020AFF215330122009011464C
:1023A0006420FFF7B3F97864002003210122CDE90E
:1023B0000001EC4D0346540221462846FEF7FAFC84
:1023C0006C83FFF736FE787BF86104211020FFF75D
:1023D000DCFB07F14F010020FFF78FFC0021E2A298
:1023E0000846FFF72BFCE8A202210020FFF726FC9D
:1023F0004FF47A74204600F0A8F9FFF7B3FBE4A18C
:1024000005A8FA6900F050FB002105AA0846FFF76D
:1024100015FC204600F099F9FFF7A4FB0021E0A28B
:102420000846FFF70BFCE3494AF6AA2008600022A1
:10243000E14CDFF888937A7007F148058346787994
:10244000A0B17E71B86918B9DDA1E048FFF771F855
:10245000B869012803D1DEA1DC48FFF76AF8B86942
:10246000022803D1DDA1D948FFF763F8F87908B154
:10247000FFF74AFDB87908B1FFF74DFD387801281C
:1024800004D0D9A202210020FFF7D8FB78780128D8
:102490005BD187F8008022792A7063796B70A1790B
:1024A000A970E079E87094F808C085F804C094F841
:1024B00009C085F805C094F80AC085F806C094F8EC
:1024C00001C0BCF1080F06D1CDE90010BA48CAA17D
:1024D000643000F0E9FA60780B2810D1E8780DF14B
:1024E000040CAB796A7929798CE80F00A878009000
:1024F000B1486B782A78C6A1643000F0D5FACEA234
:1025000002210020FFF79AFBAB486430FFF77FFD04
:1025100028B187F8038087F808803E6204E0A64966
:10252000C9486431FFF705F8C820FFF761FD7E70E8
:10253000F87840B1C5A202210020FFF77FFBFE70B2
:10254000FFF7F1FC00E03E707E70386A00EBD0705F
:1025500040103863F969884208D3FFF7C2FC3E7225
:10256000FE713E623E637E70BE703E70786A00EB24
:10257000D07040107863F969884206D3FFF7AAFC4F
:102580003E73BE717E627E633E70B86AB863012896
:1025900006DB4FF48060A9F80000BE72BE62BE6325
:1025A000F86AF863012804DBA9F800A0FE72FE6354
:1025B000FE628049C1F800B041E738B5684C054675
:1025C00001286ED17D480A380168090401684FEA84
:1025D000816126D4002901684FEA416110DB00685F
:1025E00000294FEA006005DB002801DB44203EE0C3
:1025F00038203CE0002801DB342038E0232036E09E
:10260000006800294FEA006005DB002801DB32206A
:102610002DE030202BE0002801DB362027E042208F
:1026200025E0002901684FEA416110DB00680029BC
:102630004FEA006005DB002801DB312017E039207C
:1026400015E0002801DB352011E041200FE0006893
:1026500000294FEA006005DB002801DB332006E09B
:102660002E2004E0002801DB372000E04320207406
:102670007549C0B28DF800008889800408D50888A3
:102680000006FCD59DF80000888008880006FCD56F
:102690002079401CC0B220710A2802D30120FFF724
:1026A00069F900200121082D09D0102D0FD0B5F5B2
:1026B000807F03D1E06940002062606238BDA2796A
:1026C000002AFBD1E171617BE161206338BDE279D1
:1026D000002AFBD1A171617BE161606338BD204AB2
:1026E000BD2801D100219173334B917B5854D87888
:1026F00010B90120012904D0302901D2491C91735D
:1027000070475070FAE710B50023154A522800D1DF
:10271000D373294CD17B32340229605404D0302940
:1027200007D2491CD17310BD10780128F9D1D0709F
:10273000F7E7D37310BD49494FF400600883704731
:1027400046494FF4006048837047454908B50A6818
:1027500000920A68009BD21A8242FAD308BD000098
:10276000880000200010024053544D33324634306C
:10277000375645540A0D4372656172746279522668
:10278000442D54495300000057656C636F6D65001C
:1027900054696D6572206F75742025640000000017
:1027A0002D2D2D2D544953382050524F2D2D2D2D88
:1027B0000000000000300040F80100201A0C024028
:1027C0002F4C45443030303E0D0A000000100140CF
:1027D0002F4C45443030313E0D0A00002F4C45440B
:1027E0003030323E0D0A00005761697420666F7206
:1027F0002043617264000000253032782025303299
:1028000078202530327820253032782C31000000B5
:102810002530327820253032782025303278202536
:10282000303278202530327820253032782025301B
:1028300032782C310000000057616974696E67209E
:1028400050432E2E2E00000000480040446F6F724F
:10285000206F70656E65642E2E000000000002403F
:10286000740000207047FEE7FEE7FEE7FEE77047D2
:1028700070477047704710B5FEF7ECFE10BD0000C2
:102880000CB50022544900920192086840F480304F
:1028900008604FF4A043086800F4003001900098ED
:1028A000401C0090019810B900989842F3D1086834
:1028B000800334D50120019047484030026842F03F
:1028C000805202604548026842F440420260424839
:1028D000083002680260026842F400420260026846
:1028E00042F4A0520260031F3D4A1A600A6842F097
:1028F00080720A600A689201FCD53A4940F205727A
:102900000A60016821F003010160016841F00201E1
:1029100001600168C1F381010229FAD10CBD019265
:102920000CBD314810B5016841F4700101602A48BE
:10293000016841F001010160274A0021083211605D
:1029400002682A4B1A400260031D294A1A60026875
:1029500022F48022026020480C300160FFF790FFD3
:1029600021494FF000608039086010BD70B51A4DE4
:10297000083528681F4B204910F00C0004D05E1069
:10298000042803D0082803D00B601BE00E6019E078
:10299000114A121D1068C0F38054106800F03F0007
:1029A00014B1B6FBF0F001E0B3FBF0F0136812686D
:1029B000C3F388135843C2F30142521C5200B0FBC8
:1029C000F2F0086028680C4AC0F30310121D105C76
:1029D0000A68C2400A6070BD0038024000700040C2
:1029E00008544007003C024088ED00E0FFFFF6FE7F
:1029F000103000240024F400F400002070B50646D6
:102A000000F0F2F9056806F10B0020F00704B4426B
:102A10009CBF002070BD2B466A68BAB11068A04206
:102A200010D304F1080188423CBF5068586007D3B6
:102A30005168101941601168091B016058601460E9
:102A4000101D70BD13465268002AE7D12146284662
:102A500000F0D2F90028DED170BD70B50446051F24
:102A600000F0C2F90068002C14BF446870BD002C4F
:102A700018BFAC423CBF20466468F8D301680A180E
:102A8000AA4218BF456003D12A6805461144016077
:102A900028684119A1421CBF6C6070BD6168696003
:102AA00021680844286070BD0FB41CB5074B06AA06
:102AB0007B4469460090059800F047FA002069467B
:102AC00000F056FA1CBC5DF814FB0000BD040000C9
:102AD00070B5044685690068C10601D5302600E05E
:102AE0002026C00707D070BDD4E9012130469047A9
:102AF000206A401C20626D1EF6D570BD70B504467C
:102B000085690078C00707D170BDD4E90121202074
:102B10009047206A401C20626D1EF6D570BD0000F3
:102B20002DE9F0410646002410687529314616A5A6
:102B300010D0AFF30080002802DA404213A507E06E
:102B400031688A0701D512A502E0490704D511A50D
:102B5000012401E0AFF3008000210A2206F12407DE
:102B600009E0B0FBF2FCB0FBF2F302FB1C003030DA
:102B700078541846491C0028F3D123462A4630468B
:102B8000BDE8F04100F082B9000000002D00000017
:102B90002B0000002000000070B504460D462146C1
:102BA0001068AFF300802188090502D50F4A7A44E6
:102BB00002E00E4A7A440E32002104F1240305E0BB
:102BC00000F00F060009965D5E54491C0028F7D1FD
:102BD00020780023000704D5702D02D009B102230C
:102BE00011322046BDE8704000F050B92A050000BF
:102BF0002DE9F05F894604464FF0000ADFF824B162
:102C0000FB44C0F820A02046E168884700287DD01A
:102C1000252806D0D4E901219047206A401C206273
:102C2000F1E700255F462046E168884720280646F0
:102C300007DB312E05D2B81910F8200C08B1054376
:102C4000F1E7A80701D525F00405C4F81CA000276A
:102C5000C4F818A02A2E09D0304600F033FA38B351
:102C600004EB8708303EC8F8186019E059F8041BD7
:102C7000204604EB87029161E1688847012F0646F0
:102C800018D1E069002820DA25F020051DE0D8F8E9
:102C9000180000EB800006EB40003038C8F8180040
:102CA0002046E1688847064600F00CFA0028EED17D
:102CB000012F0AD02E2E08D12046E16888477F1CBC
:102CC0000646022F45F02005C4DBA069002803DA80
:102CD000404245F00105A061E80701D025F010054C
:102CE000A6B1A6F14100192802D8203645F40065A6
:102CF0004A463146204625604D46FDF77FFA60B1D1
:102D0000012807D0ED1D25F0070000E007E000F1E5
:102D1000080978E705F1040975E730467AE7206A83
:102D2000BDE8F09F0005000030B505460B462A4679
:102D300013F8014B12F8010B08B1A042F8D01CB1F6
:102D4000002802D06D1CF1E7284630BD40EA01039F
:102D500070B59B072ED14FF00136042A2AD308C83C
:102D600010C99D1B9D43121F15EAC61517D0D8B276
:102D7000E1B2401A50EA056110D198B2A1B2401AEE
:102D800050EA05410AD123F07F4024F07F41401AE8
:102D900050EA052102D1180EA0EB146070BDA342C9
:102DA000DBD018BA21BA884201D9012070BD4FF09A
:102DB000FF3070BD0AB9002070BD10F8013B11F85A
:102DC000014B63B1A3420AD1521E08D010F8013B57
:102DD00011F8014B1BB1A34201D1521EEDD1181BBA
:102DE00070BD7047704770470048704778020020F8
:102DF000704770477047704738B504460A46002050
:102E00006946AFF30080002808BF38BD024600992C
:102E1000204600F0B7F8012038BD012000F0CCB802
:102E2000F8B5AFF30080054600200C46102000BF27
:102E30000646A819A0420DD9324669460020AFF3D4
:102E40000080070008BF00F0B7F80098A04218BF44
:102E50000546C419FFF7C8FF05600746F01D20F0BE
:102E600007004619284600F00AF8B44208BFF8BD2A
:102E7000A21B31463868BDE8F84000F083B8002155
:102E80000160C0E901107047102070472DE9F0473C
:102E90000D4699469246044600F1240801688806CA
:102EA00004D5E06921F01001216000E00120A84272
:102EB00001DD471B00E00027A1697A1902EB090038
:102EC000081AA0612078C00602D42046FFF700FE51
:102ED000002608E0D4E901211AF806009047206A8C
:102EE000401C761C20624E45F4DB2078C0060AD5D3
:102EF0002046FFF7EDFD06E0D4E9012130209047A0
:102F0000206A401C2062381EA7F10107F4DC07E0AC
:102F1000D4E9012118F805009047206A401C20627E
:102F2000281EA5F10105F3DC2046FFF7E7FD207818
:102F3000000602D50220BDE8F0870120FBE7000073
:102F400001694A1C02610878704700B58FB0CDE96D
:102F500001310021059105497944CDE9031011465D
:102F60006846FFF745FE0FB000BD0000E5FFFFFF1C
:102F70000A6802F8010B0A607047000000487047B9
:102F800070020020034640688C46002818BF884223
:102F90003CBF03464068F8D318681844884207D0FD
:102FA0000CF1030020F00700001D411A521A0146DF
:102FB000081D0A60FFF751BD10B500F035F8BDE8F7
:102FC000104000F02CB870477546FFF7D7FFAE46AB
:102FD00005006946534620F00700854618B020B525
:102FE000FDF73CF9BDE820404FF000064FF0000728
:102FF0004FF000084FF0000B21F00701AC46ACE8A1
:10300000C009ACE8C009ACE8C009ACE8C0098D460D
:1030100070470446AFF300802046FDF70AF9002808
:1030200001D000F029B8704710B5012805D0002163
:1030300003A000F027F8012010BD09A1F8E7000067
:1030400053494752544D454D3A204F7574206F6691
:103050002068656170206D656D6F727900000000F9
:103060003A2048656170206D656D6F727920636FDD
:10307000727275707465640001491820ABBEFEE77A
:103080002600020070B505460C460A2000E06D1CC3
:1030900000F011F835B128780028F8D102E0641C5E
:1030A00000F009F814B120780028F8D1BDE870408C
:1030B0000A20AFF3008008B569468DF800000320B0
:1030C000ABBE08BD30380A2801D20120704700206D
:1030D00070474FF04070E1EE100A704730313233E4
:1030E000343536373839414243444546403058003C
:1030F000303132333435363738396162636465666E
:1031000040307800040000080000000000000002C9
:1031100000010000100000003034203330203861FE
:1031200020616120336620336520383000000000C4
:103130006237203762203837203532003031203175
:10314000322033342034350068310008000000207C
:1031500008010000C40100087032000808010020C6
:10316000C8090000E001000800000000010203049B
:1031700001020304060708091E01002020000000C8
:1031800000000000000A00003E01002020000000B6
:1031900000000000000A00005E0100202000000086
:1031A00000000000000A00007E0100202000000056
:1031B00000000000000A00009E0100202000000026
:1031C00000000000000A0000BE01002020000000F6
:1031D00000000000000A00000000000000000000E5
:1031E00000000000000000000000000000000000DF
:1031F00000000000000000000000000000000000CF
:1032000000BA0201B9000000000000000000000048
:1032100000000000000000000000000000000000AE
:10322000000000000000000000000000000000009E
:103230000000000000000000000000000000001F6F
:103240001111111111111F0030310008183100083F
:103250003C3100083C3100083C310008007A030A88
:103260000000000000000000010203040607080936
:040000050800018965
:00000001FF
